{
  "_format": "hh-sol-artifact-1",
  "contractName": "Proposals",
  "sourceName": "contracts/Proposals.sol",
  "abi": [
    {
      "anonymous": false,
      "inputs": [
        {
          "indexed": true,
          "internalType": "uint256",
          "name": "electionId",
          "type": "uint256"
        },
        {
          "indexed": true,
          "internalType": "uint256",
          "name": "proposalId",
          "type": "uint256"
        },
        {
          "indexed": false,
          "internalType": "string",
          "name": "name",
          "type": "string"
        }
      ],
      "name": "ProposalCreated",
      "type": "event"
    },
    {
      "anonymous": false,
      "inputs": [
        {
          "indexed": true,
          "internalType": "address",
          "name": "sender",
          "type": "address"
        },
        {
          "indexed": true,
          "internalType": "uint256",
          "name": "electionId",
          "type": "uint256"
        },
        {
          "indexed": true,
          "internalType": "uint256",
          "name": "electionDistrict",
          "type": "uint256"
        },
        {
          "indexed": false,
          "internalType": "uint256",
          "name": "timestamp",
          "type": "uint256"
        }
      ],
      "name": "StoreVotingResult",
      "type": "event"
    },
    {
      "inputs": [],
      "name": "admin",
      "outputs": [
        {
          "internalType": "address",
          "name": "",
          "type": "address"
        }
      ],
      "stateMutability": "view",
      "type": "function"
    },
    {
      "inputs": [
        {
          "internalType": "uint256",
          "name": "electionId",
          "type": "uint256"
        },
        {
          "internalType": "string",
          "name": "_encryptedVote",
          "type": "string"
        },
        {
          "internalType": "string",
          "name": "_token",
          "type": "string"
        },
        {
          "internalType": "uint256",
          "name": "district",
          "type": "uint256"
        }
      ],
      "name": "castEncryptedVote",
      "outputs": [],
      "stateMutability": "nonpayable",
      "type": "function"
    },
    {
      "inputs": [
        {
          "internalType": "address",
          "name": "",
          "type": "address"
        }
      ],
      "name": "contractToElectionId",
      "outputs": [
        {
          "internalType": "uint256",
          "name": "",
          "type": "uint256"
        }
      ],
      "stateMutability": "view",
      "type": "function"
    },
    {
      "inputs": [
        {
          "internalType": "string",
          "name": "_title",
          "type": "string"
        }
      ],
      "name": "createElection",
      "outputs": [],
      "stateMutability": "nonpayable",
      "type": "function"
    },
    {
      "inputs": [],
      "name": "currentElectionId",
      "outputs": [
        {
          "internalType": "uint256",
          "name": "",
          "type": "uint256"
        }
      ],
      "stateMutability": "view",
      "type": "function"
    },
    {
      "inputs": [
        {
          "internalType": "uint256",
          "name": "",
          "type": "uint256"
        }
      ],
      "name": "elections",
      "outputs": [
        {
          "internalType": "string",
          "name": "title",
          "type": "string"
        },
        {
          "internalType": "bool",
          "name": "votingOpen",
          "type": "bool"
        },
        {
          "internalType": "bool",
          "name": "electionBegin",
          "type": "bool"
        }
      ],
      "stateMutability": "view",
      "type": "function"
    },
    {
      "inputs": [
        {
          "internalType": "uint256",
          "name": "electionId",
          "type": "uint256"
        }
      ],
      "name": "endVoting",
      "outputs": [],
      "stateMutability": "nonpayable",
      "type": "function"
    },
    {
      "inputs": [
        {
          "internalType": "address",
          "name": "contractAddress",
          "type": "address"
        }
      ],
      "name": "getElectionIdByContract",
      "outputs": [
        {
          "internalType": "uint256",
          "name": "",
          "type": "uint256"
        }
      ],
      "stateMutability": "view",
      "type": "function"
    },
    {
      "inputs": [
        {
          "internalType": "uint256",
          "name": "electionId",
          "type": "uint256"
        }
      ],
      "name": "getElectionStatus",
      "outputs": [
        {
          "internalType": "string",
          "name": "status",
          "type": "string"
        }
      ],
      "stateMutability": "view",
      "type": "function"
    },
    {
      "inputs": [
        {
          "internalType": "uint256",
          "name": "electionId",
          "type": "uint256"
        }
      ],
      "name": "getElectionTitle",
      "outputs": [
        {
          "internalType": "string",
          "name": "title",
          "type": "string"
        }
      ],
      "stateMutability": "view",
      "type": "function"
    },
    {
      "inputs": [
        {
          "internalType": "uint256",
          "name": "electionId",
          "type": "uint256"
        }
      ],
      "name": "getEncryptedVotes",
      "outputs": [
        {
          "components": [
            {
              "internalType": "string",
              "name": "vote",
              "type": "string"
            }
          ],
          "internalType": "struct Proposals.EncryptedVote[]",
          "name": "",
          "type": "tuple[]"
        }
      ],
      "stateMutability": "view",
      "type": "function"
    },
    {
      "inputs": [],
      "name": "getModus",
      "outputs": [
        {
          "internalType": "uint256",
          "name": "",
          "type": "uint256"
        }
      ],
      "stateMutability": "view",
      "type": "function"
    },
    {
      "inputs": [
        {
          "internalType": "uint256",
          "name": "electionId",
          "type": "uint256"
        }
      ],
      "name": "getNumberOfVotes",
      "outputs": [
        {
          "internalType": "uint256",
          "name": "",
          "type": "uint256"
        }
      ],
      "stateMutability": "view",
      "type": "function"
    },
    {
      "inputs": [
        {
          "internalType": "uint256",
          "name": "electionId",
          "type": "uint256"
        }
      ],
      "name": "getProposals",
      "outputs": [
        {
          "components": [
            {
              "internalType": "uint256",
              "name": "uid",
              "type": "uint256"
            },
            {
              "internalType": "string",
              "name": "name",
              "type": "string"
            },
            {
              "internalType": "string",
              "name": "text",
              "type": "string"
            },
            {
              "internalType": "string",
              "name": "url",
              "type": "string"
            },
            {
              "internalType": "uint256",
              "name": "qtype",
              "type": "uint256"
            },
            {
              "internalType": "string",
              "name": "answer1",
              "type": "string"
            },
            {
              "internalType": "string",
              "name": "answer2",
              "type": "string"
            }
          ],
          "internalType": "struct Proposals.Proposal[]",
          "name": "",
          "type": "tuple[]"
        }
      ],
      "stateMutability": "view",
      "type": "function"
    },
    {
      "inputs": [
        {
          "internalType": "uint256",
          "name": "electionId",
          "type": "uint256"
        }
      ],
      "name": "getPublicKey",
      "outputs": [
        {
          "internalType": "string",
          "name": "",
          "type": "string"
        }
      ],
      "stateMutability": "view",
      "type": "function"
    },
    {
      "inputs": [
        {
          "internalType": "uint256",
          "name": "electionId",
          "type": "uint256"
        },
        {
          "internalType": "uint256",
          "name": "_wahlbezirk",
          "type": "uint256"
        }
      ],
      "name": "getVotingResults",
      "outputs": [
        {
          "components": [
            {
              "internalType": "string",
              "name": "tally",
              "type": "string"
            },
            {
              "internalType": "string",
              "name": "signature",
              "type": "string"
            },
            {
              "internalType": "uint256",
              "name": "timestamp",
              "type": "uint256"
            },
            {
              "internalType": "uint256",
              "name": "electionDistrict",
              "type": "uint256"
            }
          ],
          "internalType": "struct Proposals.VotingResult[]",
          "name": "",
          "type": "tuple[]"
        }
      ],
      "stateMutability": "view",
      "type": "function"
    },
    {
      "inputs": [
        {
          "internalType": "uint256",
          "name": "electionId",
          "type": "uint256"
        },
        {
          "internalType": "string",
          "name": "_token",
          "type": "string"
        },
        {
          "internalType": "uint256",
          "name": "_electionDistrict",
          "type": "uint256"
        }
      ],
      "name": "isTokenValid",
      "outputs": [
        {
          "internalType": "bool",
          "name": "",
          "type": "bool"
        }
      ],
      "stateMutability": "view",
      "type": "function"
    },
    {
      "inputs": [
        {
          "internalType": "uint256",
          "name": "electionId",
          "type": "uint256"
        },
        {
          "internalType": "string",
          "name": "_token",
          "type": "string"
        },
        {
          "internalType": "uint256",
          "name": "_electionDistrict",
          "type": "uint256"
        }
      ],
      "name": "markTokenUsed",
      "outputs": [],
      "stateMutability": "nonpayable",
      "type": "function"
    },
    {
      "inputs": [],
      "name": "modus",
      "outputs": [
        {
          "internalType": "uint256",
          "name": "",
          "type": "uint256"
        }
      ],
      "stateMutability": "view",
      "type": "function"
    },
    {
      "inputs": [
        {
          "internalType": "uint256",
          "name": "",
          "type": "uint256"
        }
      ],
      "name": "publicKeys",
      "outputs": [
        {
          "internalType": "string",
          "name": "",
          "type": "string"
        }
      ],
      "stateMutability": "view",
      "type": "function"
    },
    {
      "inputs": [
        {
          "internalType": "uint256",
          "name": "electionId",
          "type": "uint256"
        },
        {
          "components": [
            {
              "internalType": "string",
              "name": "name",
              "type": "string"
            },
            {
              "internalType": "string",
              "name": "text",
              "type": "string"
            },
            {
              "internalType": "string",
              "name": "url",
              "type": "string"
            },
            {
              "internalType": "uint256",
              "name": "qtype",
              "type": "uint256"
            },
            {
              "internalType": "string",
              "name": "answer1",
              "type": "string"
            },
            {
              "internalType": "string",
              "name": "answer2",
              "type": "string"
            }
          ],
          "internalType": "struct Proposals.ProposalInput",
          "name": "p",
          "type": "tuple"
        }
      ],
      "name": "registerProposal",
      "outputs": [],
      "stateMutability": "nonpayable",
      "type": "function"
    },
    {
      "inputs": [
        {
          "internalType": "uint256",
          "name": "electionId",
          "type": "uint256"
        },
        {
          "components": [
            {
              "internalType": "string",
              "name": "name",
              "type": "string"
            },
            {
              "internalType": "string",
              "name": "text",
              "type": "string"
            },
            {
              "internalType": "string",
              "name": "url",
              "type": "string"
            },
            {
              "internalType": "uint256",
              "name": "qtype",
              "type": "uint256"
            },
            {
              "internalType": "string",
              "name": "answer1",
              "type": "string"
            },
            {
              "internalType": "string",
              "name": "answer2",
              "type": "string"
            }
          ],
          "internalType": "struct Proposals.ProposalInput[]",
          "name": "items",
          "type": "tuple[]"
        }
      ],
      "name": "registerProposalsBatch",
      "outputs": [],
      "stateMutability": "nonpayable",
      "type": "function"
    },
    {
      "inputs": [
        {
          "internalType": "uint256",
          "name": "electionId",
          "type": "uint256"
        },
        {
          "internalType": "string",
          "name": "_token",
          "type": "string"
        },
        {
          "internalType": "uint256",
          "name": "_electionDistrict",
          "type": "uint256"
        }
      ],
      "name": "registerToken",
      "outputs": [],
      "stateMutability": "nonpayable",
      "type": "function"
    },
    {
      "inputs": [
        {
          "internalType": "uint256",
          "name": "electionId",
          "type": "uint256"
        },
        {
          "internalType": "string[]",
          "name": "_tokens",
          "type": "string[]"
        },
        {
          "internalType": "uint256[]",
          "name": "_electionDistricts",
          "type": "uint256[]"
        }
      ],
      "name": "registerTokens",
      "outputs": [],
      "stateMutability": "nonpayable",
      "type": "function"
    },
    {
      "inputs": [
        {
          "internalType": "uint256",
          "name": "electionId",
          "type": "uint256"
        }
      ],
      "name": "startVoting",
      "outputs": [],
      "stateMutability": "nonpayable",
      "type": "function"
    },
    {
      "inputs": [
        {
          "internalType": "uint256",
          "name": "electionId",
          "type": "uint256"
        },
        {
          "internalType": "string",
          "name": "_publicKey",
          "type": "string"
        }
      ],
      "name": "storePublicKey",
      "outputs": [],
      "stateMutability": "nonpayable",
      "type": "function"
    },
    {
      "inputs": [
        {
          "internalType": "uint256",
          "name": "electionId",
          "type": "uint256"
        },
        {
          "internalType": "string",
          "name": "_tally",
          "type": "string"
        },
        {
          "internalType": "string",
          "name": "_signature",
          "type": "string"
        },
        {
          "internalType": "uint256",
          "name": "_wahlbezirk",
          "type": "uint256"
        }
      ],
      "name": "storeVotingResult",
      "outputs": [],
      "stateMutability": "nonpayable",
      "type": "function"
    }
  ],
  "bytecode": "0x60806040526002600555348015601457600080fd5b50336000806101000a81548173ffffffffffffffffffffffffffffffffffffffff021916908373ffffffffffffffffffffffffffffffffffffffff160217905550614107806100646000396000f3fe608060405234801561001057600080fd5b50600436106101a95760003560e01c806375d2c1ce116100f9578063bec7d69111610097578063c71f425311610071578063c71f425314610502578063de82283c14610532578063df6c17ac1461054e578063f851a4401461057e576101a9565b8063bec7d6911461049a578063bffbb6d9146104b6578063c680f410146104d2576101a9565b806398ecf2a0116100d357806398ecf2a0146104125780639996913614610430578063a0122a2b14610460578063a41425d81461047c576101a9565b806375d2c1ce146103965780637658361c146103c657806396b8d206146103e2576101a9565b80632c72fdfc116101665780635e6fef01116101405780635e6fef011461030e578063647af08014610340578063649f89a51461035e578063687ad69d1461037a576101a9565b80632c72fdfc146102925780633d2f5bda146102c25780634d94fc6a146102de576101a9565b80630e0a48e2146101ae5780630f010058146101de57806313c149831461020e57806315cf4a5f1461022a57806324785b9e146102465780632765963414610276575b600080fd5b6101c860048036038101906101c39190612a4b565b61059c565b6040516101d59190612a91565b60405180910390f35b6101f860048036038101906101f39190612ad8565b6105b4565b6040516102059190612c81565b60405180910390f35b61022860048036038101906102239190612d08565b6107d4565b005b610244600480360381019061023f9190612edf565b610a84565b005b610260600480360381019061025b9190612ad8565b610c02565b60405161026d9190612f72565b60405180910390f35b610290600480360381019061028b9190612f94565b610ce7565b005b6102ac60048036038101906102a79190612ad8565b610f75565b6040516102b9919061318c565b60405180910390f35b6102dc60048036038101906102d79190612ad8565b6112d5565b005b6102f860048036038101906102f39190612ad8565b611428565b6040516103059190612f72565b60405180910390f35b61032860048036038101906103239190612ad8565b6114d0565b604051610337939291906131c9565b60405180910390f35b61034861159c565b6040516103559190612a91565b60405180910390f35b61037860048036038101906103739190612ad8565b6115a6565b005b610394600480360381019061038f9190612d08565b6116cb565b005b6103b060048036038101906103ab9190612ad8565b6118e1565b6040516103bd9190612f72565b60405180910390f35b6103e060048036038101906103db91906133ab565b611986565b005b6103fc60048036038101906103f79190613436565b611c76565b60405161040991906135a2565b60405180910390f35b61041a611ec4565b6040516104279190612a91565b60405180910390f35b61044a60048036038101906104459190612a4b565b611eca565b6040516104579190612a91565b60405180910390f35b61047a6004803603810190610475919061361a565b611f13565b005b6104846122ba565b6040516104919190612a91565b60405180910390f35b6104b460048036038101906104af919061367a565b6122c0565b005b6104d060048036038101906104cb9190612f94565b6123dc565b005b6104ec60048036038101906104e79190612ad8565b6124d5565b6040516104f99190612f72565b60405180910390f35b61051c60048036038101906105179190612ad8565b612575565b6040516105299190612a91565b60405180910390f35b61054c600480360381019061054791906136fe565b612624565b005b61056860048036038101906105639190612f94565b6128ac565b604051610575919061375a565b60405180910390f35b6105866129b5565b6040516105939190613784565b60405180910390f35b60026020528060005260406000206000915090505481565b6060816001600082815260200190815260200160002060010160009054906101000a900460ff1615801561060857506001600082815260200190815260200160002060010160019054906101000a900460ff165b610647576040517f08c379a000000000000000000000000000000000000000000000000000000000815260040161063e90613811565b60405180910390fd5b60008054906101000a900473ffffffffffffffffffffffffffffffffffffffff1673ffffffffffffffffffffffffffffffffffffffff163373ffffffffffffffffffffffffffffffffffffffff16146106d5576040517f08c379a00000000000000000000000000000000000000000000000000000000081526004016106cc906138a3565b60405180910390fd5b60096000848152602001908152602001600020805480602002602001604051908101604052809291908181526020016000905b828210156107c857838290600052602060002001604051806020016040529081600082018054610737906138f2565b80601f0160208091040260200160405190810160405280929190818152602001828054610763906138f2565b80156107b05780601f10610785576101008083540402835291602001916107b0565b820191906000526020600020905b81548152906001019060200180831161079357829003601f168201915b50505050508152505081526020019060010190610708565b50505050915050919050565b856001600082815260200190815260200160002060010160009054906101000a900460ff1615801561082657506001600082815260200190815260200160002060010160019054906101000a900460ff165b610865576040517f08c379a000000000000000000000000000000000000000000000000000000000815260040161085c90613811565b60405180910390fd5b60008054906101000a900473ffffffffffffffffffffffffffffffffffffffff1673ffffffffffffffffffffffffffffffffffffffff163373ffffffffffffffffffffffffffffffffffffffff16146108f3576040517f08c379a00000000000000000000000000000000000000000000000000000000081526004016108ea906138a3565b60405180910390fd5b600b60008881526020019081526020016000206000838152602001908152602001600020604051806080016040528088888080601f016020809104026020016040519081016040528093929190818152602001838380828437600081840152601f19601f82011690508083019250505050505050815260200186868080601f016020809104026020016040519081016040528093929190818152602001838380828437600081840152601f19601f82011690508083019250505050505050815260200142815260200184815250908060018154018082558091505060019003906000526020600020906004020160009091909190915060008201518160000190816109fe9190613acf565b506020820151816001019081610a149190613acf565b506040820151816002015560608201518160030155505081873373ffffffffffffffffffffffffffffffffffffffff167f87e87abb64097d2b0a0e1871482ca966df1fea5b17b4ccafb3d8fce7ef298cea42604051610a739190612a91565b60405180910390a450505050505050565b60008054906101000a900473ffffffffffffffffffffffffffffffffffffffff1673ffffffffffffffffffffffffffffffffffffffff163373ffffffffffffffffffffffffffffffffffffffff1614610b12576040517f08c379a0000000000000000000000000000000000000000000000000000000008152600401610b09906138a3565b60405180910390fd5b60046000815480929190610b2590613bd0565b91905055506040518060600160405280828152602001600015158152602001600015158152506001600060045481526020019081526020016000206000820151816000019081610b759190613acf565b5060208201518160010160006101000a81548160ff02191690831515021790555060408201518160010160016101000a81548160ff021916908315150217905550905050600454600260003073ffffffffffffffffffffffffffffffffffffffff1673ffffffffffffffffffffffffffffffffffffffff1681526020019081526020016000208190555050565b606060006001600084815260200190815260200160002090508060010160019054906101000a900460ff1615610cc5578060010160009054906101000a900460ff1615610c87576040518060400160405280601781526020017f446965205761686c20697374206765c3b666666e65742e000000000000000000815250915050610ce2565b6040518060400160405280601981526020017f446965205761686c206973742067657363686c6f7373656e2e00000000000000815250915050610ce2565b6040518060600160405280602181526020016140b1602191399150505b919050565b60008054906101000a900473ffffffffffffffffffffffffffffffffffffffff1673ffffffffffffffffffffffffffffffffffffffff163373ffffffffffffffffffffffffffffffffffffffff1614610d75576040517f08c379a0000000000000000000000000000000000000000000000000000000008152600401610d6c906138a3565b60405180910390fd5b826001600082815260200190815260200160002060010160019054906101000a900460ff1615610dda576040517f08c379a0000000000000000000000000000000000000000000000000000000008152600401610dd190613c64565b60405180910390fd5b600060036000868152602001908152602001600020905060005b8180549050811015610ec95784604051602001610e119190613cc0565b60405160208183030381529060405280519060200120828281548110610e3a57610e39613cd7565b5b906000526020600020906003020160000154148015610e7c575083828281548110610e6857610e67613cd7565b5b906000526020600020906003020160010154145b15610ebc576040517f08c379a0000000000000000000000000000000000000000000000000000000008152600401610eb390613d52565b60405180910390fd5b8080600101915050610df4565b5080604051806060016040528086604051602001610ee79190613cc0565b604051602081830303815290604052805190602001208152602001858152602001600015158152509080600181540180825580915050600190039060005260206000209060030201600090919091909150600082015181600001556020820151816001015560408201518160020160006101000a81548160ff02191690831515021790555050505050505050565b606060086000838152602001908152602001600020805480602002602001604051908101604052809291908181526020016000905b828210156112ca57838290600052602060002090600702016040518060e001604052908160008201548152602001600182018054610fe7906138f2565b80601f0160208091040260200160405190810160405280929190818152602001828054611013906138f2565b80156110605780601f1061103557610100808354040283529160200191611060565b820191906000526020600020905b81548152906001019060200180831161104357829003601f168201915b50505050508152602001600282018054611079906138f2565b80601f01602080910402602001604051908101604052809291908181526020018280546110a5906138f2565b80156110f25780601f106110c7576101008083540402835291602001916110f2565b820191906000526020600020905b8154815290600101906020018083116110d557829003601f168201915b5050505050815260200160038201805461110b906138f2565b80601f0160208091040260200160405190810160405280929190818152602001828054611137906138f2565b80156111845780601f1061115957610100808354040283529160200191611184565b820191906000526020600020905b81548152906001019060200180831161116757829003601f168201915b50505050508152602001600482015481526020016005820180546111a7906138f2565b80601f01602080910402602001604051908101604052809291908181526020018280546111d3906138f2565b80156112205780601f106111f557610100808354040283529160200191611220565b820191906000526020600020905b81548152906001019060200180831161120357829003601f168201915b50505050508152602001600682018054611239906138f2565b80601f0160208091040260200160405190810160405280929190818152602001828054611265906138f2565b80156112b25780601f10611287576101008083540402835291602001916112b2565b820191906000526020600020905b81548152906001019060200180831161129557829003601f168201915b50505050508152505081526020019060010190610faa565b505050509050919050565b60008054906101000a900473ffffffffffffffffffffffffffffffffffffffff1673ffffffffffffffffffffffffffffffffffffffff163373ffffffffffffffffffffffffffffffffffffffff1614611363576040517f08c379a000000000000000000000000000000000000000000000000000000000815260040161135a906138a3565b60405180910390fd5b806001600082815260200190815260200160002060010160019054906101000a900460ff16156113c8576040517f08c379a00000000000000000000000000000000000000000000000000000000081526004016113bf90613c64565b60405180910390fd5b600180600084815260200190815260200160002060010160006101000a81548160ff021916908315150217905550600180600084815260200190815260200160002060010160016101000a81548160ff0219169083151502179055505050565b606060016000838152602001908152602001600020600001805461144b906138f2565b80601f0160208091040260200160405190810160405280929190818152602001828054611477906138f2565b80156114c45780601f10611499576101008083540402835291602001916114c4565b820191906000526020600020905b8154815290600101906020018083116114a757829003601f168201915b50505050509050919050565b60016020528060005260406000206000915090508060000180546114f3906138f2565b80601f016020809104026020016040519081016040528092919081815260200182805461151f906138f2565b801561156c5780601f106115415761010080835404028352916020019161156c565b820191906000526020600020905b81548152906001019060200180831161154f57829003601f168201915b5050505050908060010160009054906101000a900460ff16908060010160019054906101000a900460ff16905083565b6000600554905090565b60008054906101000a900473ffffffffffffffffffffffffffffffffffffffff1673ffffffffffffffffffffffffffffffffffffffff163373ffffffffffffffffffffffffffffffffffffffff1614611634576040517f08c379a000000000000000000000000000000000000000000000000000000000815260040161162b906138a3565b60405180910390fd5b806001600082815260200190815260200160002060010160009054906101000a900460ff16611698576040517f08c379a000000000000000000000000000000000000000000000000000000000815260040161168f90613dbe565b60405180910390fd5b60006001600084815260200190815260200160002060010160006101000a81548160ff0219169083151502179055505050565b856001600082815260200190815260200160002060010160009054906101000a900460ff1661172f576040517f08c379a000000000000000000000000000000000000000000000000000000000815260040161172690613dbe565b60405180910390fd5b61177e8785858080601f016020809104026020016040519081016040528093929190818152602001838380828437600081840152601f19601f82011690508083019250505050505050846128ac565b6117bd576040517f08c379a00000000000000000000000000000000000000000000000000000000081526004016117b490613e2a565b60405180910390fd5b61180c8785858080601f016020809104026020016040519081016040528093929190818152602001838380828437600081840152601f19601f82011690508083019250505050505050846123dc565b600a6000888152602001908152602001600020600081548092919061183090613bd0565b919050555060096000888152602001908152602001600020604051806020016040528088888080601f016020809104026020016040519081016040528093929190818152602001838380828437600081840152601f19601f820116905080830192505050505050508152509080600181540180825580915050600190039060005260206000200160009091909190915060008201518160000190816118d59190613acf565b50505050505050505050565b6060600760008381526020019081526020016000208054611901906138f2565b80601f016020809104026020016040519081016040528092919081815260200182805461192d906138f2565b801561197a5780601f1061194f5761010080835404028352916020019161197a565b820191906000526020600020905b81548152906001019060200180831161195d57829003601f168201915b50505050509050919050565b60008054906101000a900473ffffffffffffffffffffffffffffffffffffffff1673ffffffffffffffffffffffffffffffffffffffff163373ffffffffffffffffffffffffffffffffffffffff1614611a14576040517f08c379a0000000000000000000000000000000000000000000000000000000008152600401611a0b906138a3565b60405180910390fd5b826001600082815260200190815260200160002060010160019054906101000a900460ff1615611a79576040517f08c379a0000000000000000000000000000000000000000000000000000000008152600401611a7090613c64565b60405180910390fd5b8151835114611abd576040517f08c379a0000000000000000000000000000000000000000000000000000000008152600401611ab490613e96565b60405180910390fd5b600060036000868152602001908152602001600020905060005b8451811015611c6e576000858281518110611af557611af4613cd7565b5b6020026020010151604051602001611b0d9190613cc0565b6040516020818303038152906040528051906020012090506000805b8480549050811015611bc05782858281548110611b4957611b48613cd7565b5b906000526020600020906003020160000154148015611ba55750868481518110611b7657611b75613cd7565b5b6020026020010151858281548110611b9157611b90613cd7565b5b906000526020600020906003020160010154145b15611bb35760019150611bc0565b8080600101915050611b29565b5080611c5f57836040518060600160405280848152602001888681518110611beb57611bea613cd7565b5b60200260200101518152602001600015158152509080600181540180825580915050600190039060005260206000209060030201600090919091909150600082015181600001556020820151816001015560408201518160020160006101000a81548160ff02191690831515021790555050505b50508080600101915050611ad7565b505050505050565b6060826001600082815260200190815260200160002060010160009054906101000a900460ff16158015611cca57506001600082815260200190815260200160002060010160019054906101000a900460ff165b611d09576040517f08c379a0000000000000000000000000000000000000000000000000000000008152600401611d0090613811565b60405180910390fd5b600b60008581526020019081526020016000206000848152602001908152602001600020805480602002602001604051908101604052809291908181526020016000905b82821015611eb75783829060005260206000209060040201604051806080016040529081600082018054611d80906138f2565b80601f0160208091040260200160405190810160405280929190818152602001828054611dac906138f2565b8015611df95780601f10611dce57610100808354040283529160200191611df9565b820191906000526020600020905b815481529060010190602001808311611ddc57829003601f168201915b50505050508152602001600182018054611e12906138f2565b80601f0160208091040260200160405190810160405280929190818152602001828054611e3e906138f2565b8015611e8b5780601f10611e6057610100808354040283529160200191611e8b565b820191906000526020600020905b815481529060010190602001808311611e6e57829003601f168201915b505050505081526020016002820154815260200160038201548152505081526020019060010190611d4d565b5050505091505092915050565b60045481565b6000600260008373ffffffffffffffffffffffffffffffffffffffff1673ffffffffffffffffffffffffffffffffffffffff168152602001908152602001600020549050919050565b60008054906101000a900473ffffffffffffffffffffffffffffffffffffffff1673ffffffffffffffffffffffffffffffffffffffff163373ffffffffffffffffffffffffffffffffffffffff1614611fa1576040517f08c379a0000000000000000000000000000000000000000000000000000000008152600401611f98906138a3565b60405180910390fd5b826001600082815260200190815260200160002060010160019054906101000a900460ff1615612006576040517f08c379a0000000000000000000000000000000000000000000000000000000008152600401611ffd90613c64565b60405180910390fd5b6000600860008681526020019081526020016000209050600084849050905060005b818110156122b1576006600081548092919061204390613bd0565b91905055508260018160018154018082558091505003906000526020600020905050600083600185805490506120799190613eb6565b8154811061208a57612089613cd7565b5b9060005260206000209060070201905060065481600001819055508686838181106120b8576120b7613cd7565b5b90506020028101906120ca9190613ef9565b80600001906120d99190613f21565b8260010191826120ea929190613f8f565b508686838181106120fe576120fd613cd7565b5b90506020028101906121109190613ef9565b806020019061211f9190613f21565b826002019182612130929190613f8f565b5086868381811061214457612143613cd7565b5b90506020028101906121569190613ef9565b80604001906121659190613f21565b826003019182612176929190613f8f565b5086868381811061218a57612189613cd7565b5b905060200281019061219c9190613ef9565b6060013581600401819055508686838181106121bb576121ba613cd7565b5b90506020028101906121cd9190613ef9565b80608001906121dc9190613f21565b8260050191826121ed929190613f8f565b5086868381811061220157612200613cd7565b5b90506020028101906122139190613ef9565b8060a001906122229190613f21565b826006019182612233929190613f8f565b50600654887f7aade497c2cd4241d757f694370d0e4a250bfa251b3ab287406b2ab58d3fdad689898681811061226c5761226b613cd7565b5b905060200281019061227e9190613ef9565b806000019061228d9190613f21565b60405161229b92919061408c565b60405180910390a3508080600101915050612028565b50505050505050565b60055481565b60008054906101000a900473ffffffffffffffffffffffffffffffffffffffff1673ffffffffffffffffffffffffffffffffffffffff163373ffffffffffffffffffffffffffffffffffffffff161461234e576040517f08c379a0000000000000000000000000000000000000000000000000000000008152600401612345906138a3565b60405180910390fd5b826001600082815260200190815260200160002060010160019054906101000a900460ff16156123b3576040517f08c379a00000000000000000000000000000000000000000000000000000000081526004016123aa90613c64565b60405180910390fd5b82826007600087815260200190815260200160002091826123d5929190613f8f565b5050505050565b600060036000858152602001908152602001600020905060005b81805490508110156124ce57836040516020016124139190613cc0565b6040516020818303038152906040528051906020012082828154811061243c5761243b613cd7565b5b90600052602060002090600302016000015414801561247e57508282828154811061246a57612469613cd7565b5b906000526020600020906003020160010154145b156124c157600182828154811061249857612497613cd7565b5b906000526020600020906003020160020160006101000a81548160ff0219169083151502179055505b80806001019150506123f6565b5050505050565b600760205280600052604060002060009150905080546124f4906138f2565b80601f0160208091040260200160405190810160405280929190818152602001828054612520906138f2565b801561256d5780601f106125425761010080835404028352916020019161256d565b820191906000526020600020905b81548152906001019060200180831161255057829003601f168201915b505050505081565b6000816001600082815260200190815260200160002060010160009054906101000a900460ff161580156125c957506001600082815260200190815260200160002060010160019054906101000a900460ff165b612608576040517f08c379a00000000000000000000000000000000000000000000000000000000081526004016125ff90613811565b60405180910390fd5b600a600084815260200190815260200160002054915050919050565b60008054906101000a900473ffffffffffffffffffffffffffffffffffffffff1673ffffffffffffffffffffffffffffffffffffffff163373ffffffffffffffffffffffffffffffffffffffff16146126b2576040517f08c379a00000000000000000000000000000000000000000000000000000000081526004016126a9906138a3565b60405180910390fd5b816001600082815260200190815260200160002060010160019054906101000a900460ff1615612717576040517f08c379a000000000000000000000000000000000000000000000000000000000815260040161270e90613c64565b60405180910390fd5b6006600081548092919061272a90613bd0565b919050555060006008600085815260200190815260200160002090508060018160018154018082558091505003906000526020600020905050600081600183805490506127779190613eb6565b8154811061278857612787613cd7565b5b9060005260206000209060070201905060065481600001819055508380600001906127b39190613f21565b8260010191826127c4929190613f8f565b508380602001906127d59190613f21565b8260020191826127e6929190613f8f565b508380604001906127f79190613f21565b826003019182612808929190613f8f565b50836060013581600401819055508380608001906128269190613f21565b826005019182612837929190613f8f565b50838060a001906128489190613f21565b826006019182612859929190613f8f565b50600654857f7aade497c2cd4241d757f694370d0e4a250bfa251b3ab287406b2ab58d3fdad686806000019061288f9190613f21565b60405161289d92919061408c565b60405180910390a35050505050565b60008060036000868152602001908152602001600020905060005b81805490508110156129a757846040516020016128e49190613cc0565b6040516020818303038152906040528051906020012082828154811061290d5761290c613cd7565b5b90600052602060002090600302016000015414801561295b575081818154811061293a57612939613cd7565b5b906000526020600020906003020160020160009054906101000a900460ff16155b801561298a57508382828154811061297657612975613cd7565b5b906000526020600020906003020160010154145b1561299a576001925050506129ae565b80806001019150506128c7565b5060009150505b9392505050565b60008054906101000a900473ffffffffffffffffffffffffffffffffffffffff1681565b6000604051905090565b600080fd5b600080fd5b600073ffffffffffffffffffffffffffffffffffffffff82169050919050565b6000612a18826129ed565b9050919050565b612a2881612a0d565b8114612a3357600080fd5b50565b600081359050612a4581612a1f565b92915050565b600060208284031215612a6157612a606129e3565b5b6000612a6f84828501612a36565b91505092915050565b6000819050919050565b612a8b81612a78565b82525050565b6000602082019050612aa66000830184612a82565b92915050565b612ab581612a78565b8114612ac057600080fd5b50565b600081359050612ad281612aac565b92915050565b600060208284031215612aee57612aed6129e3565b5b6000612afc84828501612ac3565b91505092915050565b600081519050919050565b600082825260208201905092915050565b6000819050602082019050919050565b600081519050919050565b600082825260208201905092915050565b60005b83811015612b6b578082015181840152602081019050612b50565b60008484015250505050565b6000601f19601f8301169050919050565b6000612b9382612b31565b612b9d8185612b3c565b9350612bad818560208601612b4d565b612bb681612b77565b840191505092915050565b60006020830160008301518482036000860152612bde8282612b88565b9150508091505092915050565b6000612bf78383612bc1565b905092915050565b6000602082019050919050565b6000612c1782612b05565b612c218185612b10565b935083602082028501612c3385612b21565b8060005b85811015612c6f5784840389528151612c508582612beb565b9450612c5b83612bff565b925060208a01995050600181019050612c37565b50829750879550505050505092915050565b60006020820190508181036000830152612c9b8184612c0c565b905092915050565b600080fd5b600080fd5b600080fd5b60008083601f840112612cc857612cc7612ca3565b5b8235905067ffffffffffffffff811115612ce557612ce4612ca8565b5b602083019150836001820283011115612d0157612d00612cad565b5b9250929050565b60008060008060008060808789031215612d2557612d246129e3565b5b6000612d3389828a01612ac3565b965050602087013567ffffffffffffffff811115612d5457612d536129e8565b5b612d6089828a01612cb2565b9550955050604087013567ffffffffffffffff811115612d8357612d826129e8565b5b612d8f89828a01612cb2565b93509350506060612da289828a01612ac3565b9150509295509295509295565b600080fd5b7f4e487b7100000000000000000000000000000000000000000000000000000000600052604160045260246000fd5b612dec82612b77565b810181811067ffffffffffffffff82111715612e0b57612e0a612db4565b5b80604052505050565b6000612e1e6129d9565b9050612e2a8282612de3565b919050565b600067ffffffffffffffff821115612e4a57612e49612db4565b5b612e5382612b77565b9050602081019050919050565b82818337600083830152505050565b6000612e82612e7d84612e2f565b612e14565b905082815260208101848484011115612e9e57612e9d612daf565b5b612ea9848285612e60565b509392505050565b600082601f830112612ec657612ec5612ca3565b5b8135612ed6848260208601612e6f565b91505092915050565b600060208284031215612ef557612ef46129e3565b5b600082013567ffffffffffffffff811115612f1357612f126129e8565b5b612f1f84828501612eb1565b91505092915050565b600082825260208201905092915050565b6000612f4482612b31565b612f4e8185612f28565b9350612f5e818560208601612b4d565b612f6781612b77565b840191505092915050565b60006020820190508181036000830152612f8c8184612f39565b905092915050565b600080600060608486031215612fad57612fac6129e3565b5b6000612fbb86828701612ac3565b935050602084013567ffffffffffffffff811115612fdc57612fdb6129e8565b5b612fe886828701612eb1565b9250506040612ff986828701612ac3565b9150509250925092565b600081519050919050565b600082825260208201905092915050565b6000819050602082019050919050565b61303881612a78565b82525050565b600060e083016000830151613056600086018261302f565b506020830151848203602086015261306e8282612b88565b915050604083015184820360408601526130888282612b88565b915050606083015184820360608601526130a28282612b88565b91505060808301516130b7608086018261302f565b5060a083015184820360a08601526130cf8282612b88565b91505060c083015184820360c08601526130e98282612b88565b9150508091505092915050565b6000613102838361303e565b905092915050565b6000602082019050919050565b600061312282613003565b61312c818561300e565b93508360208202850161313e8561301f565b8060005b8581101561317a578484038952815161315b85826130f6565b94506131668361310a565b925060208a01995050600181019050613142565b50829750879550505050505092915050565b600060208201905081810360008301526131a68184613117565b905092915050565b60008115159050919050565b6131c3816131ae565b82525050565b600060608201905081810360008301526131e38186612f39565b90506131f260208301856131ba565b6131ff60408301846131ba565b949350505050565b600067ffffffffffffffff82111561322257613221612db4565b5b602082029050602081019050919050565b600061324661324184613207565b612e14565b9050808382526020820190506020840283018581111561326957613268612cad565b5b835b818110156132b057803567ffffffffffffffff81111561328e5761328d612ca3565b5b80860161329b8982612eb1565b8552602085019450505060208101905061326b565b5050509392505050565b600082601f8301126132cf576132ce612ca3565b5b81356132df848260208601613233565b91505092915050565b600067ffffffffffffffff82111561330357613302612db4565b5b602082029050602081019050919050565b6000613327613322846132e8565b612e14565b9050808382526020820190506020840283018581111561334a57613349612cad565b5b835b81811015613373578061335f8882612ac3565b84526020840193505060208101905061334c565b5050509392505050565b600082601f83011261339257613391612ca3565b5b81356133a2848260208601613314565b91505092915050565b6000806000606084860312156133c4576133c36129e3565b5b60006133d286828701612ac3565b935050602084013567ffffffffffffffff8111156133f3576133f26129e8565b5b6133ff868287016132ba565b925050604084013567ffffffffffffffff8111156134205761341f6129e8565b5b61342c8682870161337d565b9150509250925092565b6000806040838503121561344d5761344c6129e3565b5b600061345b85828601612ac3565b925050602061346c85828601612ac3565b9150509250929050565b600081519050919050565b600082825260208201905092915050565b6000819050602082019050919050565b600060808301600083015184820360008601526134bf8282612b88565b915050602083015184820360208601526134d98282612b88565b91505060408301516134ee604086018261302f565b506060830151613501606086018261302f565b508091505092915050565b600061351883836134a2565b905092915050565b6000602082019050919050565b600061353882613476565b6135428185613481565b93508360208202850161355485613492565b8060005b858110156135905784840389528151613571858261350c565b945061357c83613520565b925060208a01995050600181019050613558565b50829750879550505050505092915050565b600060208201905081810360008301526135bc818461352d565b905092915050565b60008083601f8401126135da576135d9612ca3565b5b8235905067ffffffffffffffff8111156135f7576135f6612ca8565b5b60208301915083602082028301111561361357613612612cad565b5b9250929050565b600080600060408486031215613633576136326129e3565b5b600061364186828701612ac3565b935050602084013567ffffffffffffffff811115613662576136616129e8565b5b61366e868287016135c4565b92509250509250925092565b600080600060408486031215613693576136926129e3565b5b60006136a186828701612ac3565b935050602084013567ffffffffffffffff8111156136c2576136c16129e8565b5b6136ce86828701612cb2565b92509250509250925092565b600080fd5b600060c082840312156136f5576136f46136da565b5b81905092915050565b60008060408385031215613715576137146129e3565b5b600061372385828601612ac3565b925050602083013567ffffffffffffffff811115613744576137436129e8565b5b613750858286016136df565b9150509250929050565b600060208201905061376f60008301846131ba565b92915050565b61377e81612a0d565b82525050565b60006020820190506137996000830184613775565b92915050565b7f446965205761686c20697374206e6f6368206765c3b666666e6574206f64657260008201527f20686174206e69636874206265676f6e6e656e2e000000000000000000000000602082015250565b60006137fb603483612f28565b91506138068261379f565b604082019050919050565b6000602082019050818103600083015261382a816137ee565b9050919050565b7f4e7572206465722041646d696e206b616e6e2064696573652046756e6b74696f60008201527f6e2061757366c3bc6872656e2100000000000000000000000000000000000000602082015250565b600061388d602d83612f28565b915061389882613831565b604082019050919050565b600060208201905081810360008301526138bc81613880565b9050919050565b7f4e487b7100000000000000000000000000000000000000000000000000000000600052602260045260246000fd5b6000600282049050600182168061390a57607f821691505b60208210810361391d5761391c6138c3565b5b50919050565b60008190508160005260206000209050919050565b60006020601f8301049050919050565b600082821b905092915050565b6000600883026139857fffffffffffffffffffffffffffffffffffffffffffffffffffffffffffffffff82613948565b61398f8683613948565b95508019841693508086168417925050509392505050565b6000819050919050565b60006139cc6139c76139c284612a78565b6139a7565b612a78565b9050919050565b6000819050919050565b6139e6836139b1565b6139fa6139f2826139d3565b848454613955565b825550505050565b600090565b613a0f613a02565b613a1a8184846139dd565b505050565b5b81811015613a3e57613a33600082613a07565b600181019050613a20565b5050565b601f821115613a8357613a5481613923565b613a5d84613938565b81016020851015613a6c578190505b613a80613a7885613938565b830182613a1f565b50505b505050565b600082821c905092915050565b6000613aa660001984600802613a88565b1980831691505092915050565b6000613abf8383613a95565b9150826002028217905092915050565b613ad882612b31565b67ffffffffffffffff811115613af157613af0612db4565b5b613afb82546138f2565b613b06828285613a42565b600060209050601f831160018114613b395760008415613b27578287015190505b613b318582613ab3565b865550613b99565b601f198416613b4786613923565b60005b82811015613b6f57848901518255600182019150602085019450602081019050613b4a565b86831015613b8c5784890151613b88601f891682613a95565b8355505b6001600288020188555050505b505050505050565b7f4e487b7100000000000000000000000000000000000000000000000000000000600052601160045260246000fd5b6000613bdb82612a78565b91507fffffffffffffffffffffffffffffffffffffffffffffffffffffffffffffffff8203613c0d57613c0c613ba1565b5b600182019050919050565b7f446965205761686c20697374207363686f6e206765c3b666666e65742e000000600082015250565b6000613c4e601d83612f28565b9150613c5982613c18565b602082019050919050565b60006020820190508181036000830152613c7d81613c41565b9050919050565b600081905092915050565b6000613c9a82612b31565b613ca48185613c84565b9350613cb4818560208601612b4d565b80840191505092915050565b6000613ccc8284613c8f565b915081905092915050565b7f4e487b7100000000000000000000000000000000000000000000000000000000600052603260045260246000fd5b7f546f6b656e20616c726561647920726567697374657265640000000000000000600082015250565b6000613d3c601883612f28565b9150613d4782613d06565b602082019050919050565b60006020820190508181036000830152613d6b81613d2f565b9050919050565b7f446965205761686c20697374206e69636874206765c3b666666e65742e000000600082015250565b6000613da8601d83612f28565b9150613db382613d72565b602082019050919050565b60006020820190508181036000830152613dd781613d9b565b9050919050565b7f496e76616c6964206f72207573656420746f6b656e0000000000000000000000600082015250565b6000613e14601583612f28565b9150613e1f82613dde565b602082019050919050565b60006020820190508181036000830152613e4381613e07565b9050919050565b7f4c656e677468206d69736d617463680000000000000000000000000000000000600082015250565b6000613e80600f83612f28565b9150613e8b82613e4a565b602082019050919050565b60006020820190508181036000830152613eaf81613e73565b9050919050565b6000613ec182612a78565b9150613ecc83612a78565b9250828203905081811115613ee457613ee3613ba1565b5b92915050565b600080fd5b600080fd5b600080fd5b60008235600160c003833603038112613f1557613f14613eea565b5b80830191505092915050565b60008083356001602003843603038112613f3e57613f3d613eea565b5b80840192508235915067ffffffffffffffff821115613f6057613f5f613eef565b5b602083019250600182023603831315613f7c57613f7b613ef4565b5b509250929050565b600082905092915050565b613f998383613f84565b67ffffffffffffffff811115613fb257613fb1612db4565b5b613fbc82546138f2565b613fc7828285613a42565b6000601f831160018114613ff65760008415613fe4578287013590505b613fee8582613ab3565b865550614056565b601f19841661400486613923565b60005b8281101561402c57848901358255600182019150602085019450602081019050614007565b868310156140495784890135614045601f891682613a95565b8355505b6001600288020188555050505b50505050505050565b600061406b8385612f28565b9350614078838584612e60565b61408183612b77565b840190509392505050565b600060208201905081810360008301526140a781848661405f565b9050939250505056fe446965205761686c20686174206e6f6368206e69636874206265676f6e6e656e2ea264697066735822122029cf3e657a489fd88d10f048da03d8c96d9147d58cd7616361e39c682a9e016464736f6c634300081c0033",
  "linkReferences": {},
  "deployedLinkReferences": {}
}