{
  "_format": "hh-sol-artifact-1",
  "contractName": "Bundestagswahl",
  "sourceName": "contracts/Bundestagswahl.sol",
  "abi": [
    {
      "inputs": [],
      "name": "admin",
      "outputs": [
        {
          "internalType": "address",
          "name": "",
          "type": "address"
        }
      ],
      "stateMutability": "view",
      "type": "function"
    },
    {
      "inputs": [
        {
          "internalType": "uint256",
          "name": "",
          "type": "uint256"
        },
        {
          "internalType": "uint256",
          "name": "",
          "type": "uint256"
        }
      ],
      "name": "candidates",
      "outputs": [
        {
          "internalType": "uint256",
          "name": "uid",
          "type": "uint256"
        },
        {
          "internalType": "string",
          "name": "name",
          "type": "string"
        },
        {
          "internalType": "uint256",
          "name": "wahlbezirk",
          "type": "uint256"
        },
        {
          "internalType": "string",
          "name": "partei",
          "type": "string"
        },
        {
          "internalType": "string",
          "name": "url",
          "type": "string"
        },
        {
          "internalType": "uint256",
          "name": "votes",
          "type": "uint256"
        }
      ],
      "stateMutability": "view",
      "type": "function"
    },
    {
      "inputs": [
        {
          "internalType": "uint256",
          "name": "electionId",
          "type": "uint256"
        },
        {
          "internalType": "string",
          "name": "_encryptedVote1",
          "type": "string"
        },
        {
          "internalType": "string",
          "name": "_encryptedVote2",
          "type": "string"
        },
        {
          "internalType": "string",
          "name": "_token",
          "type": "string"
        },
        {
          "internalType": "uint256",
          "name": "_wahlbezirk",
          "type": "uint256"
        }
      ],
      "name": "castEncryptedVote",
      "outputs": [],
      "stateMutability": "nonpayable",
      "type": "function"
    },
    {
      "inputs": [
        {
          "internalType": "address",
          "name": "",
          "type": "address"
        }
      ],
      "name": "contractToElectionId",
      "outputs": [
        {
          "internalType": "uint256",
          "name": "",
          "type": "uint256"
        }
      ],
      "stateMutability": "view",
      "type": "function"
    },
    {
      "inputs": [
        {
          "internalType": "string",
          "name": "_title",
          "type": "string"
        }
      ],
      "name": "createElection",
      "outputs": [],
      "stateMutability": "nonpayable",
      "type": "function"
    },
    {
      "inputs": [],
      "name": "currentCandidateId",
      "outputs": [
        {
          "internalType": "uint256",
          "name": "",
          "type": "uint256"
        }
      ],
      "stateMutability": "view",
      "type": "function"
    },
    {
      "inputs": [],
      "name": "currentElectionId",
      "outputs": [
        {
          "internalType": "uint256",
          "name": "",
          "type": "uint256"
        }
      ],
      "stateMutability": "view",
      "type": "function"
    },
    {
      "inputs": [],
      "name": "currentPartyId",
      "outputs": [
        {
          "internalType": "uint256",
          "name": "",
          "type": "uint256"
        }
      ],
      "stateMutability": "view",
      "type": "function"
    },
    {
      "inputs": [
        {
          "internalType": "uint256",
          "name": "",
          "type": "uint256"
        },
        {
          "internalType": "uint256",
          "name": "",
          "type": "uint256"
        }
      ],
      "name": "electionDistricts",
      "outputs": [
        {
          "internalType": "string",
          "name": "name",
          "type": "string"
        },
        {
          "internalType": "uint256",
          "name": "nummer",
          "type": "uint256"
        },
        {
          "internalType": "string",
          "name": "publicKey",
          "type": "string"
        }
      ],
      "stateMutability": "view",
      "type": "function"
    },
    {
      "inputs": [
        {
          "internalType": "uint256",
          "name": "",
          "type": "uint256"
        },
        {
          "internalType": "uint256",
          "name": "",
          "type": "uint256"
        }
      ],
      "name": "electionResults1",
      "outputs": [
        {
          "internalType": "string",
          "name": "tally",
          "type": "string"
        },
        {
          "internalType": "string",
          "name": "signature",
          "type": "string"
        },
        {
          "internalType": "uint256",
          "name": "timestamp",
          "type": "uint256"
        },
        {
          "internalType": "uint256",
          "name": "electionDistrict",
          "type": "uint256"
        }
      ],
      "stateMutability": "view",
      "type": "function"
    },
    {
      "inputs": [
        {
          "internalType": "uint256",
          "name": "",
          "type": "uint256"
        },
        {
          "internalType": "uint256",
          "name": "",
          "type": "uint256"
        }
      ],
      "name": "electionResults2",
      "outputs": [
        {
          "internalType": "string",
          "name": "tally",
          "type": "string"
        },
        {
          "internalType": "string",
          "name": "signature",
          "type": "string"
        },
        {
          "internalType": "uint256",
          "name": "timestamp",
          "type": "uint256"
        },
        {
          "internalType": "uint256",
          "name": "electionDistrict",
          "type": "uint256"
        }
      ],
      "stateMutability": "view",
      "type": "function"
    },
    {
      "inputs": [
        {
          "internalType": "uint256",
          "name": "",
          "type": "uint256"
        }
      ],
      "name": "elections",
      "outputs": [
        {
          "internalType": "string",
          "name": "title",
          "type": "string"
        },
        {
          "internalType": "bool",
          "name": "votingOpen",
          "type": "bool"
        },
        {
          "internalType": "bool",
          "name": "electionBegin",
          "type": "bool"
        }
      ],
      "stateMutability": "view",
      "type": "function"
    },
    {
      "inputs": [
        {
          "internalType": "uint256",
          "name": "",
          "type": "uint256"
        },
        {
          "internalType": "uint256",
          "name": "",
          "type": "uint256"
        }
      ],
      "name": "encryptedVotes",
      "outputs": [
        {
          "internalType": "string",
          "name": "vote1",
          "type": "string"
        },
        {
          "internalType": "string",
          "name": "vote2",
          "type": "string"
        },
        {
          "internalType": "uint256",
          "name": "electionDistrict",
          "type": "uint256"
        }
      ],
      "stateMutability": "view",
      "type": "function"
    },
    {
      "inputs": [
        {
          "internalType": "uint256",
          "name": "electionId",
          "type": "uint256"
        }
      ],
      "name": "endVoting",
      "outputs": [],
      "stateMutability": "nonpayable",
      "type": "function"
    },
    {
      "inputs": [
        {
          "internalType": "uint256",
          "name": "electionId",
          "type": "uint256"
        },
        {
          "internalType": "uint256",
          "name": "_wahlbezirk",
          "type": "uint256"
        }
      ],
      "name": "getCandidates",
      "outputs": [
        {
          "components": [
            {
              "internalType": "uint256",
              "name": "uid",
              "type": "uint256"
            },
            {
              "internalType": "string",
              "name": "name",
              "type": "string"
            },
            {
              "internalType": "uint256",
              "name": "wahlbezirk",
              "type": "uint256"
            },
            {
              "internalType": "string",
              "name": "partei",
              "type": "string"
            },
            {
              "internalType": "string",
              "name": "url",
              "type": "string"
            },
            {
              "internalType": "uint256",
              "name": "votes",
              "type": "uint256"
            }
          ],
          "internalType": "struct Bundestagswahl.Candidate[]",
          "name": "",
          "type": "tuple[]"
        }
      ],
      "stateMutability": "view",
      "type": "function"
    },
    {
      "inputs": [
        {
          "internalType": "uint256",
          "name": "electionId",
          "type": "uint256"
        },
        {
          "internalType": "uint256",
          "name": "_number",
          "type": "uint256"
        }
      ],
      "name": "getElectionDistrictByNumber",
      "outputs": [
        {
          "components": [
            {
              "internalType": "string",
              "name": "name",
              "type": "string"
            },
            {
              "internalType": "uint256",
              "name": "nummer",
              "type": "uint256"
            },
            {
              "internalType": "string",
              "name": "publicKey",
              "type": "string"
            }
          ],
          "internalType": "struct Bundestagswahl.ElectionDistrict",
          "name": "",
          "type": "tuple"
        }
      ],
      "stateMutability": "view",
      "type": "function"
    },
    {
      "inputs": [
        {
          "internalType": "uint256",
          "name": "electionId",
          "type": "uint256"
        }
      ],
      "name": "getElectionDistricts",
      "outputs": [
        {
          "components": [
            {
              "internalType": "string",
              "name": "name",
              "type": "string"
            },
            {
              "internalType": "uint256",
              "name": "nummer",
              "type": "uint256"
            },
            {
              "internalType": "string",
              "name": "publicKey",
              "type": "string"
            }
          ],
          "internalType": "struct Bundestagswahl.ElectionDistrict[]",
          "name": "",
          "type": "tuple[]"
        }
      ],
      "stateMutability": "view",
      "type": "function"
    },
    {
      "inputs": [
        {
          "internalType": "address",
          "name": "contractAddress",
          "type": "address"
        }
      ],
      "name": "getElectionIdByContract",
      "outputs": [
        {
          "internalType": "uint256",
          "name": "",
          "type": "uint256"
        }
      ],
      "stateMutability": "view",
      "type": "function"
    },
    {
      "inputs": [
        {
          "internalType": "uint256",
          "name": "electionId",
          "type": "uint256"
        },
        {
          "internalType": "uint256",
          "name": "_electionDistrict",
          "type": "uint256"
        }
      ],
      "name": "getElectionResultsDistrict1",
      "outputs": [
        {
          "internalType": "string",
          "name": "",
          "type": "string"
        },
        {
          "internalType": "uint256",
          "name": "",
          "type": "uint256"
        },
        {
          "internalType": "string",
          "name": "",
          "type": "string"
        },
        {
          "internalType": "uint256",
          "name": "",
          "type": "uint256"
        }
      ],
      "stateMutability": "view",
      "type": "function"
    },
    {
      "inputs": [
        {
          "internalType": "uint256",
          "name": "electionId",
          "type": "uint256"
        },
        {
          "internalType": "uint256",
          "name": "_electionDistrict",
          "type": "uint256"
        }
      ],
      "name": "getElectionResultsDistrict2",
      "outputs": [
        {
          "internalType": "string",
          "name": "",
          "type": "string"
        },
        {
          "internalType": "uint256",
          "name": "",
          "type": "uint256"
        },
        {
          "internalType": "string",
          "name": "",
          "type": "string"
        },
        {
          "internalType": "uint256",
          "name": "",
          "type": "uint256"
        }
      ],
      "stateMutability": "view",
      "type": "function"
    },
    {
      "inputs": [
        {
          "internalType": "uint256",
          "name": "electionId",
          "type": "uint256"
        }
      ],
      "name": "getElectionStatus",
      "outputs": [
        {
          "internalType": "string",
          "name": "status",
          "type": "string"
        }
      ],
      "stateMutability": "view",
      "type": "function"
    },
    {
      "inputs": [
        {
          "internalType": "uint256",
          "name": "electionId",
          "type": "uint256"
        }
      ],
      "name": "getElectionTitle",
      "outputs": [
        {
          "internalType": "string",
          "name": "title",
          "type": "string"
        }
      ],
      "stateMutability": "view",
      "type": "function"
    },
    {
      "inputs": [
        {
          "internalType": "uint256",
          "name": "electionId",
          "type": "uint256"
        },
        {
          "internalType": "uint256",
          "name": "_wahlbezirk",
          "type": "uint256"
        }
      ],
      "name": "getEncryptedVotes",
      "outputs": [
        {
          "components": [
            {
              "internalType": "string",
              "name": "vote1",
              "type": "string"
            },
            {
              "internalType": "string",
              "name": "vote2",
              "type": "string"
            },
            {
              "internalType": "uint256",
              "name": "electionDistrict",
              "type": "uint256"
            }
          ],
          "internalType": "struct Bundestagswahl.EncryptedVote[]",
          "name": "",
          "type": "tuple[]"
        }
      ],
      "stateMutability": "view",
      "type": "function"
    },
    {
      "inputs": [],
      "name": "getModus",
      "outputs": [
        {
          "internalType": "uint256",
          "name": "",
          "type": "uint256"
        }
      ],
      "stateMutability": "view",
      "type": "function"
    },
    {
      "inputs": [
        {
          "internalType": "uint256",
          "name": "electionId",
          "type": "uint256"
        }
      ],
      "name": "getParties",
      "outputs": [
        {
          "components": [
            {
              "internalType": "uint256",
              "name": "uid",
              "type": "uint256"
            },
            {
              "internalType": "string",
              "name": "name",
              "type": "string"
            },
            {
              "internalType": "string",
              "name": "shortname",
              "type": "string"
            },
            {
              "internalType": "string",
              "name": "color",
              "type": "string"
            },
            {
              "internalType": "string",
              "name": "bgcolor",
              "type": "string"
            },
            {
              "internalType": "string",
              "name": "url",
              "type": "string"
            },
            {
              "internalType": "uint256",
              "name": "votes",
              "type": "uint256"
            }
          ],
          "internalType": "struct Bundestagswahl.Party[]",
          "name": "",
          "type": "tuple[]"
        }
      ],
      "stateMutability": "view",
      "type": "function"
    },
    {
      "inputs": [
        {
          "internalType": "uint256",
          "name": "electionId",
          "type": "uint256"
        },
        {
          "internalType": "string",
          "name": "_token",
          "type": "string"
        },
        {
          "internalType": "uint256",
          "name": "_electionDistrict",
          "type": "uint256"
        }
      ],
      "name": "isTokenValid",
      "outputs": [
        {
          "internalType": "bool",
          "name": "",
          "type": "bool"
        }
      ],
      "stateMutability": "view",
      "type": "function"
    },
    {
      "inputs": [
        {
          "internalType": "uint256",
          "name": "electionId",
          "type": "uint256"
        },
        {
          "internalType": "string",
          "name": "_token",
          "type": "string"
        },
        {
          "internalType": "uint256",
          "name": "_electionDistrict",
          "type": "uint256"
        }
      ],
      "name": "markTokenUsed",
      "outputs": [],
      "stateMutability": "nonpayable",
      "type": "function"
    },
    {
      "inputs": [],
      "name": "modus",
      "outputs": [
        {
          "internalType": "uint256",
          "name": "",
          "type": "uint256"
        }
      ],
      "stateMutability": "view",
      "type": "function"
    },
    {
      "inputs": [
        {
          "internalType": "uint256",
          "name": "",
          "type": "uint256"
        },
        {
          "internalType": "uint256",
          "name": "",
          "type": "uint256"
        }
      ],
      "name": "parties",
      "outputs": [
        {
          "internalType": "uint256",
          "name": "uid",
          "type": "uint256"
        },
        {
          "internalType": "string",
          "name": "name",
          "type": "string"
        },
        {
          "internalType": "string",
          "name": "shortname",
          "type": "string"
        },
        {
          "internalType": "string",
          "name": "color",
          "type": "string"
        },
        {
          "internalType": "string",
          "name": "bgcolor",
          "type": "string"
        },
        {
          "internalType": "string",
          "name": "url",
          "type": "string"
        },
        {
          "internalType": "uint256",
          "name": "votes",
          "type": "uint256"
        }
      ],
      "stateMutability": "view",
      "type": "function"
    },
    {
      "inputs": [
        {
          "internalType": "uint256",
          "name": "electionId",
          "type": "uint256"
        },
        {
          "internalType": "string",
          "name": "_name",
          "type": "string"
        },
        {
          "internalType": "uint256",
          "name": "_wahlbezirk",
          "type": "uint256"
        },
        {
          "internalType": "string",
          "name": "_partei",
          "type": "string"
        },
        {
          "internalType": "string",
          "name": "_url",
          "type": "string"
        }
      ],
      "name": "registerCandidate",
      "outputs": [],
      "stateMutability": "nonpayable",
      "type": "function"
    },
    {
      "inputs": [
        {
          "internalType": "uint256",
          "name": "electionId",
          "type": "uint256"
        },
        {
          "internalType": "string[]",
          "name": "_names",
          "type": "string[]"
        },
        {
          "internalType": "uint256[]",
          "name": "_wahlbezirke",
          "type": "uint256[]"
        },
        {
          "internalType": "string[]",
          "name": "_parteien",
          "type": "string[]"
        },
        {
          "internalType": "string[]",
          "name": "_urls",
          "type": "string[]"
        }
      ],
      "name": "registerCandidates",
      "outputs": [],
      "stateMutability": "nonpayable",
      "type": "function"
    },
    {
      "inputs": [
        {
          "internalType": "uint256",
          "name": "electionId",
          "type": "uint256"
        },
        {
          "internalType": "string",
          "name": "_name",
          "type": "string"
        },
        {
          "internalType": "uint256",
          "name": "_nummer",
          "type": "uint256"
        },
        {
          "internalType": "string",
          "name": "_publicKey",
          "type": "string"
        }
      ],
      "name": "registerElectionDistrict",
      "outputs": [],
      "stateMutability": "nonpayable",
      "type": "function"
    },
    {
      "inputs": [
        {
          "internalType": "uint256",
          "name": "electionId",
          "type": "uint256"
        },
        {
          "internalType": "string[]",
          "name": "_names",
          "type": "string[]"
        },
        {
          "internalType": "uint256[]",
          "name": "_nummern",
          "type": "uint256[]"
        },
        {
          "internalType": "string[]",
          "name": "_publicKeys",
          "type": "string[]"
        }
      ],
      "name": "registerElectionDistricts",
      "outputs": [],
      "stateMutability": "nonpayable",
      "type": "function"
    },
    {
      "inputs": [
        {
          "internalType": "uint256",
          "name": "electionId",
          "type": "uint256"
        },
        {
          "internalType": "string[]",
          "name": "_names",
          "type": "string[]"
        },
        {
          "internalType": "string[]",
          "name": "_shortnames",
          "type": "string[]"
        },
        {
          "internalType": "string[]",
          "name": "_colors",
          "type": "string[]"
        },
        {
          "internalType": "string[]",
          "name": "_bgcolors",
          "type": "string[]"
        },
        {
          "internalType": "string[]",
          "name": "_urls",
          "type": "string[]"
        }
      ],
      "name": "registerParties",
      "outputs": [],
      "stateMutability": "nonpayable",
      "type": "function"
    },
    {
      "inputs": [
        {
          "internalType": "uint256",
          "name": "electionId",
          "type": "uint256"
        },
        {
          "internalType": "string",
          "name": "_name",
          "type": "string"
        },
        {
          "internalType": "string",
          "name": "_shortname",
          "type": "string"
        },
        {
          "internalType": "string",
          "name": "_color",
          "type": "string"
        },
        {
          "internalType": "string",
          "name": "_bgcolor",
          "type": "string"
        },
        {
          "internalType": "string",
          "name": "_url",
          "type": "string"
        }
      ],
      "name": "registerParty",
      "outputs": [],
      "stateMutability": "nonpayable",
      "type": "function"
    },
    {
      "inputs": [
        {
          "internalType": "uint256",
          "name": "electionId",
          "type": "uint256"
        },
        {
          "internalType": "string",
          "name": "_token",
          "type": "string"
        },
        {
          "internalType": "uint256",
          "name": "_electionDistrict",
          "type": "uint256"
        }
      ],
      "name": "registerToken",
      "outputs": [],
      "stateMutability": "nonpayable",
      "type": "function"
    },
    {
      "inputs": [
        {
          "internalType": "uint256",
          "name": "electionId",
          "type": "uint256"
        },
        {
          "internalType": "string[]",
          "name": "_tokens",
          "type": "string[]"
        },
        {
          "internalType": "uint256[]",
          "name": "_electionDistricts",
          "type": "uint256[]"
        }
      ],
      "name": "registerTokens",
      "outputs": [],
      "stateMutability": "nonpayable",
      "type": "function"
    },
    {
      "inputs": [
        {
          "internalType": "uint256",
          "name": "electionId",
          "type": "uint256"
        }
      ],
      "name": "startVoting",
      "outputs": [],
      "stateMutability": "nonpayable",
      "type": "function"
    },
    {
      "inputs": [
        {
          "internalType": "uint256",
          "name": "electionId",
          "type": "uint256"
        },
        {
          "internalType": "string",
          "name": "_tally",
          "type": "string"
        },
        {
          "internalType": "string",
          "name": "_signature",
          "type": "string"
        },
        {
          "internalType": "uint256",
          "name": "_wahlbezirk",
          "type": "uint256"
        }
      ],
      "name": "storeElectionResult1",
      "outputs": [],
      "stateMutability": "nonpayable",
      "type": "function"
    },
    {
      "inputs": [
        {
          "internalType": "uint256",
          "name": "electionId",
          "type": "uint256"
        },
        {
          "internalType": "string",
          "name": "_tally",
          "type": "string"
        },
        {
          "internalType": "string",
          "name": "_signature",
          "type": "string"
        },
        {
          "internalType": "uint256",
          "name": "_wahlbezirk",
          "type": "uint256"
        }
      ],
      "name": "storeElectionResult2",
      "outputs": [],
      "stateMutability": "nonpayable",
      "type": "function"
    }
  ],
  "bytecode": "0x60806040526001600d55348015601457600080fd5b50336000806101000a81548173ffffffffffffffffffffffffffffffffffffffff021916908373ffffffffffffffffffffffffffffffffffffffff160217905550616811806100646000396000f3fe608060405234801561001057600080fd5b50600436106102485760003560e01c8063649f89a51161013b578063a151bc22116100b8578063d54171f91161007c578063d54171f91461079a578063df6c17ac146107cc578063e6e0c005146107fc578063f5da19e114610818578063f851a4401461083457610248565b8063a151bc22146106e4578063a41425d814610714578063bffbb6d914610732578063cb21fcfa1461074e578063d3f0e5ac1461076a57610248565b80639035a004116100ff5780639035a0041461061557806398bdc5f31461064757806398ecf2a01461067a57806399969136146106985780639e99196d146106c857610248565b8063649f89a51461055c5780637658361c146105785780637de14242146105945780637df6fb6a146105c9578063877cb0f5146105e557610248565b80633dd35078116101c957806352554a781161018d57806352554a7814610473578063541c59ed146104a95780635e6fef01146104d95780636086e25d1461050b578063647af0801461053e57610248565b80633dd35078146103bf57806341b26857146103db57806343b1eb75146103f7578063447fe289146104135780634d94fc6a1461044357610248565b806324785b9e1161021057806324785b9e14610306578063276596341461033657806328c593a514610352578063375390ad146103705780633d2f5bda146103a357610248565b80630a51034a1461024d5780630e0a48e21461026b57806315cf4a5f1461029b57806317ba80f9146102b757806318f6cdbf146102ea575b600080fd5b610255610852565b604051610262919061492a565b60405180910390f35b610285600480360381019061028091906149b7565b610858565b604051610292919061492a565b60405180910390f35b6102b560048036038101906102b09190614b2a565b610870565b005b6102d160048036038101906102cc9190614b9f565b6109ee565b6040516102e19493929190614c5e565b60405180910390f35b61030460048036038101906102ff9190614cb1565b610b4b565b005b610320600480360381019061031b9190614d50565b610cd4565b60405161032d9190614d7d565b60405180910390f35b610350600480360381019061034b9190614d9f565b610db9565b005b61035a611047565b604051610367919061492a565b60405180910390f35b61038a60048036038101906103859190614b9f565b61104d565b60405161039a9493929190614e0e565b60405180910390f35b6103bd60048036038101906103b89190614d50565b61130a565b005b6103d960048036038101906103d4919061500a565b61145d565b005b6103f560048036038101906103f091906150c5565b61169f565b005b610411600480360381019061040c91906150c5565b611864565b005b61042d60048036038101906104289190614d50565b611a29565b60405161043a9190615337565b60405180910390f35b61045d60048036038101906104589190614d50565b611d89565b60405161046a9190614d7d565b60405180910390f35b61048d60048036038101906104889190614b9f565b611e31565b6040516104a09796959493929190615359565b60405180910390f35b6104c360048036038101906104be9190614b9f565b612138565b6040516104d09190615504565b60405180910390f35b6104f360048036038101906104ee9190614d50565b6124fc565b60405161050293929190615541565b60405180910390f35b61052560048036038101906105209190614b9f565b6125c8565b6040516105359493929190614e0e565b60405180910390f35b610546612885565b604051610553919061492a565b60405180910390f35b61057660048036038101906105719190614d50565b61288f565b005b610592600480360381019061058d919061557f565b6129b4565b005b6105ae60048036038101906105a99190614b9f565b612ca4565b6040516105c09695949392919061560a565b60405180910390f35b6105e360048036038101906105de9190615680565b612e95565b005b6105ff60048036038101906105fa9190614b9f565b6131a6565b60405161060c91906157f0565b60405180910390f35b61062f600480360381019061062a9190614b9f565b6133b1565b60405161063e93929190615812565b60405180910390f35b610661600480360381019061065c9190614b9f565b613508565b6040516106719493929190614c5e565b60405180910390f35b610682613665565b60405161068f919061492a565b60405180910390f35b6106b260048036038101906106ad91906149b7565b61366b565b6040516106bf919061492a565b60405180910390f35b6106e260048036038101906106dd9190615857565b6136b4565b005b6106fe60048036038101906106f99190614b9f565b6138be565b60405161070b9190615ac9565b60405180910390f35b61071c613c08565b604051610729919061492a565b60405180910390f35b61074c60048036038101906107479190614d9f565b613c0e565b005b61076860048036038101906107639190615aeb565b613d07565b005b610784600480360381019061077f9190614d50565b613f99565b6040516107919190615cd3565b60405180910390f35b6107b460048036038101906107af9190614b9f565b614139565b6040516107c393929190615cf5565b60405180910390f35b6107e660048036038101906107e19190614d9f565b614290565b6040516107f39190615d3a565b60405180910390f35b61081660048036038101906108119190615d55565b614399565b005b610832600480360381019061082d9190615e24565b6144e9565b005b61083c614875565b6040516108499190615f1e565b60405180910390f35b600b5481565b60026020528060005260406000206000915090505481565b60008054906101000a900473ffffffffffffffffffffffffffffffffffffffff1673ffffffffffffffffffffffffffffffffffffffff163373ffffffffffffffffffffffffffffffffffffffff16146108fe576040517f08c379a00000000000000000000000000000000000000000000000000000000081526004016108f590615fab565b60405180910390fd5b6004600081548092919061091190615ffa565b91905055506040518060600160405280828152602001600015158152602001600015158152506001600060045481526020019081526020016000206000820151816000019081610961919061624e565b5060208201518160010160006101000a81548160ff02191690831515021790555060408201518160010160016101000a81548160ff021916908315150217905550905050600454600260003073ffffffffffffffffffffffffffffffffffffffff1673ffffffffffffffffffffffffffffffffffffffff1681526020019081526020016000208190555050565b60096020528160005260406000208181548110610a0a57600080fd5b906000526020600020906004020160009150915050806000018054610a2e90616071565b80601f0160208091040260200160405190810160405280929190818152602001828054610a5a90616071565b8015610aa75780601f10610a7c57610100808354040283529160200191610aa7565b820191906000526020600020905b815481529060010190602001808311610a8a57829003601f168201915b505050505090806001018054610abc90616071565b80601f0160208091040260200160405190810160405280929190818152602001828054610ae890616071565b8015610b355780601f10610b0a57610100808354040283529160200191610b35565b820191906000526020600020905b815481529060010190602001808311610b1857829003601f168201915b5050505050908060020154908060030154905084565b60008054906101000a900473ffffffffffffffffffffffffffffffffffffffff1673ffffffffffffffffffffffffffffffffffffffff163373ffffffffffffffffffffffffffffffffffffffff1614610bd9576040517f08c379a0000000000000000000000000000000000000000000000000000000008152600401610bd090615fab565b60405180910390fd5b836001600082815260200190815260200160002060010160019054906101000a900460ff1615610c3e576040517f08c379a0000000000000000000000000000000000000000000000000000000008152600401610c359061636c565b60405180910390fd5b6005600086815260200190815260200160002060405180606001604052808681526020018581526020018481525090806001815401808255809150506001900390600052602060002090600302016000909190919091506000820151816000019081610caa919061624e565b50602082015181600101556040820151816002019081610cca919061624e565b5050505050505050565b606060006001600084815260200190815260200160002090508060010160019054906101000a900460ff1615610d97578060010160009054906101000a900460ff1615610d59576040518060400160405280601781526020017f446965205761686c20697374206765c3b666666e65742e000000000000000000815250915050610db4565b6040518060400160405280601981526020017f446965205761686c206973742067657363686c6f7373656e2e00000000000000815250915050610db4565b6040518060600160405280602181526020016167bb602191399150505b919050565b60008054906101000a900473ffffffffffffffffffffffffffffffffffffffff1673ffffffffffffffffffffffffffffffffffffffff163373ffffffffffffffffffffffffffffffffffffffff1614610e47576040517f08c379a0000000000000000000000000000000000000000000000000000000008152600401610e3e90615fab565b60405180910390fd5b826001600082815260200190815260200160002060010160019054906101000a900460ff1615610eac576040517f08c379a0000000000000000000000000000000000000000000000000000000008152600401610ea39061636c565b60405180910390fd5b600060036000868152602001908152602001600020905060005b8180549050811015610f9b5784604051602001610ee391906163c8565b60405160208183030381529060405280519060200120828281548110610f0c57610f0b6163df565b5b906000526020600020906003020160000154148015610f4e575083828281548110610f3a57610f396163df565b5b906000526020600020906003020160010154145b15610f8e576040517f08c379a0000000000000000000000000000000000000000000000000000000008152600401610f859061645a565b60405180910390fd5b8080600101915050610ec6565b5080604051806060016040528086604051602001610fb991906163c8565b604051602081830303815290604052805190602001208152602001858152602001600015158152509080600181540180825580915050600190039060005260206000209060030201600090919091909150600082015181600001556020820151816001015560408201518160020160006101000a81548160ff02191690831515021790555050505050505050565b600c5481565b6060600060606000856001600082815260200190815260200160002060010160009054906101000a900460ff161580156110a757506001600082815260200190815260200160002060010160019054906101000a900460ff165b6110e6576040517f08c379a00000000000000000000000000000000000000000000000000000000081526004016110dd906164ec565b60405180910390fd5b600060096000898152602001908152602001600020905060005b81805490508110156112fd57878282815481106111205761111f6163df565b5b906000526020600020906004020160030154036112f05781818154811061114a576111496163df565b5b906000526020600020906004020160000182828154811061116e5761116d6163df565b5b906000526020600020906004020160030154838381548110611193576111926163df565b5b90600052602060002090600402016001018484815481106111b7576111b66163df565b5b9060005260206000209060040201600201548380546111d590616071565b80601f016020809104026020016040519081016040528092919081815260200182805461120190616071565b801561124e5780601f106112235761010080835404028352916020019161124e565b820191906000526020600020905b81548152906001019060200180831161123157829003601f168201915b5050505050935081805461126190616071565b80601f016020809104026020016040519081016040528092919081815260200182805461128d90616071565b80156112da5780601f106112af576101008083540402835291602001916112da565b820191906000526020600020905b8154815290600101906020018083116112bd57829003601f168201915b5050505050915096509650965096505050611300565b8080600101915050611100565b50505b5092959194509250565b60008054906101000a900473ffffffffffffffffffffffffffffffffffffffff1673ffffffffffffffffffffffffffffffffffffffff163373ffffffffffffffffffffffffffffffffffffffff1614611398576040517f08c379a000000000000000000000000000000000000000000000000000000000815260040161138f90615fab565b60405180910390fd5b806001600082815260200190815260200160002060010160019054906101000a900460ff16156113fd576040517f08c379a00000000000000000000000000000000000000000000000000000000081526004016113f49061636c565b60405180910390fd5b600180600084815260200190815260200160002060010160006101000a81548160ff021916908315150217905550600180600084815260200190815260200160002060010160016101000a81548160ff0219169083151502179055505050565b60008054906101000a900473ffffffffffffffffffffffffffffffffffffffff1673ffffffffffffffffffffffffffffffffffffffff163373ffffffffffffffffffffffffffffffffffffffff16146114eb576040517f08c379a00000000000000000000000000000000000000000000000000000000081526004016114e290615fab565b60405180910390fd5b836001600082815260200190815260200160002060010160019054906101000a900460ff1615611550576040517f08c379a00000000000000000000000000000000000000000000000000000000081526004016115479061636c565b60405180910390fd5b82518451148015611562575081518451145b6115a1576040517f08c379a000000000000000000000000000000000000000000000000000000000815260040161159890616558565b60405180910390fd5b60005b8451811015611697576005600087815260200190815260200160002060405180606001604052808784815181106115de576115dd6163df565b5b602002602001015181526020018684815181106115fe576115fd6163df565b5b6020026020010151815260200185848151811061161e5761161d6163df565b5b602002602001015181525090806001815401808255809150506001900390600052602060002090600302016000909190919091506000820151816000019081611667919061624e565b50602082015181600101556040820151816002019081611687919061624e565b50505080806001019150506115a4565b505050505050565b836001600082815260200190815260200160002060010160009054906101000a900460ff161580156116f157506001600082815260200190815260200160002060010160019054906101000a900460ff165b611730576040517f08c379a0000000000000000000000000000000000000000000000000000000008152600401611727906164ec565b60405180910390fd5b60008054906101000a900473ffffffffffffffffffffffffffffffffffffffff1673ffffffffffffffffffffffffffffffffffffffff163373ffffffffffffffffffffffffffffffffffffffff16146117be576040517f08c379a00000000000000000000000000000000000000000000000000000000081526004016117b590615fab565b60405180910390fd5b6009600086815260200190815260200160002060405180608001604052808681526020018581526020014281526020018481525090806001815401808255809150506001900390600052602060002090600402016000909190919091506000820151816000019081611830919061624e565b506020820151816001019081611846919061624e565b50604082015181600201556060820151816003015550505050505050565b836001600082815260200190815260200160002060010160009054906101000a900460ff161580156118b657506001600082815260200190815260200160002060010160019054906101000a900460ff165b6118f5576040517f08c379a00000000000000000000000000000000000000000000000000000000081526004016118ec906164ec565b60405180910390fd5b60008054906101000a900473ffffffffffffffffffffffffffffffffffffffff1673ffffffffffffffffffffffffffffffffffffffff163373ffffffffffffffffffffffffffffffffffffffff1614611983576040517f08c379a000000000000000000000000000000000000000000000000000000000815260040161197a90615fab565b60405180910390fd5b600a6000868152602001908152602001600020604051806080016040528086815260200185815260200142815260200184815250908060018154018082558091505060019003906000526020600020906004020160009091909190915060008201518160000190816119f5919061624e565b506020820151816001019081611a0b919061624e565b50604082015181600201556060820151816003015550505050505050565b606060066000838152602001908152602001600020805480602002602001604051908101604052809291908181526020016000905b82821015611d7e57838290600052602060002090600702016040518060e001604052908160008201548152602001600182018054611a9b90616071565b80601f0160208091040260200160405190810160405280929190818152602001828054611ac790616071565b8015611b145780601f10611ae957610100808354040283529160200191611b14565b820191906000526020600020905b815481529060010190602001808311611af757829003601f168201915b50505050508152602001600282018054611b2d90616071565b80601f0160208091040260200160405190810160405280929190818152602001828054611b5990616071565b8015611ba65780601f10611b7b57610100808354040283529160200191611ba6565b820191906000526020600020905b815481529060010190602001808311611b8957829003601f168201915b50505050508152602001600382018054611bbf90616071565b80601f0160208091040260200160405190810160405280929190818152602001828054611beb90616071565b8015611c385780601f10611c0d57610100808354040283529160200191611c38565b820191906000526020600020905b815481529060010190602001808311611c1b57829003601f168201915b50505050508152602001600482018054611c5190616071565b80601f0160208091040260200160405190810160405280929190818152602001828054611c7d90616071565b8015611cca5780601f10611c9f57610100808354040283529160200191611cca565b820191906000526020600020905b815481529060010190602001808311611cad57829003601f168201915b50505050508152602001600582018054611ce390616071565b80601f0160208091040260200160405190810160405280929190818152602001828054611d0f90616071565b8015611d5c5780601f10611d3157610100808354040283529160200191611d5c565b820191906000526020600020905b815481529060010190602001808311611d3f57829003601f168201915b5050505050815260200160068201548152505081526020019060010190611a5e565b505050509050919050565b6060600160008381526020019081526020016000206000018054611dac90616071565b80601f0160208091040260200160405190810160405280929190818152602001828054611dd890616071565b8015611e255780601f10611dfa57610100808354040283529160200191611e25565b820191906000526020600020905b815481529060010190602001808311611e0857829003601f168201915b50505050509050919050565b60066020528160005260406000208181548110611e4d57600080fd5b906000526020600020906007020160009150915050806000015490806001018054611e7790616071565b80601f0160208091040260200160405190810160405280929190818152602001828054611ea390616071565b8015611ef05780601f10611ec557610100808354040283529160200191611ef0565b820191906000526020600020905b815481529060010190602001808311611ed357829003601f168201915b505050505090806002018054611f0590616071565b80601f0160208091040260200160405190810160405280929190818152602001828054611f3190616071565b8015611f7e5780601f10611f5357610100808354040283529160200191611f7e565b820191906000526020600020905b815481529060010190602001808311611f6157829003601f168201915b505050505090806003018054611f9390616071565b80601f0160208091040260200160405190810160405280929190818152602001828054611fbf90616071565b801561200c5780601f10611fe15761010080835404028352916020019161200c565b820191906000526020600020905b815481529060010190602001808311611fef57829003601f168201915b50505050509080600401805461202190616071565b80601f016020809104026020016040519081016040528092919081815260200182805461204d90616071565b801561209a5780601f1061206f5761010080835404028352916020019161209a565b820191906000526020600020905b81548152906001019060200180831161207d57829003601f168201915b5050505050908060050180546120af90616071565b80601f01602080910402602001604051908101604052809291908181526020018280546120db90616071565b80156121285780601f106120fd57610100808354040283529160200191612128565b820191906000526020600020905b81548152906001019060200180831161210b57829003601f168201915b5050505050908060060154905087565b6060826001600082815260200190815260200160002060010160009054906101000a900460ff1615801561218c57506001600082815260200190815260200160002060010160019054906101000a900460ff165b6121cb576040517f08c379a00000000000000000000000000000000000000000000000000000000081526004016121c2906164ec565b60405180910390fd5b60008054906101000a900473ffffffffffffffffffffffffffffffffffffffff1673ffffffffffffffffffffffffffffffffffffffff163373ffffffffffffffffffffffffffffffffffffffff1614612259576040517f08c379a000000000000000000000000000000000000000000000000000000000815260040161225090615fab565b60405180910390fd5b60006008600086815260200190815260200160002090506000805b82805490508110156122c75785838281548110612294576122936163df565b5b906000526020600020906003020160020154036122ba5781806122b690615ffa565b9250505b8080600101915050612274565b5060008167ffffffffffffffff8111156122e4576122e36149ff565b5b60405190808252806020026020018201604052801561231d57816020015b61230a614899565b8152602001906001900390816123025790505b5090506000805b84805490508110156124ed5787858281548110612344576123436163df565b5b906000526020600020906003020160020154036124e05784818154811061236e5761236d6163df565b5b906000526020600020906003020160405180606001604052908160008201805461239790616071565b80601f01602080910402602001604051908101604052809291908181526020018280546123c390616071565b80156124105780601f106123e557610100808354040283529160200191612410565b820191906000526020600020905b8154815290600101906020018083116123f357829003601f168201915b5050505050815260200160018201805461242990616071565b80601f016020809104026020016040519081016040528092919081815260200182805461245590616071565b80156124a25780601f10612477576101008083540402835291602001916124a2565b820191906000526020600020905b81548152906001019060200180831161248557829003601f168201915b505050505081526020016002820154815250508383806124c190615ffa565b9450815181106124d4576124d36163df565b5b60200260200101819052505b8080600101915050612324565b50819550505050505092915050565b600160205280600052604060002060009150905080600001805461251f90616071565b80601f016020809104026020016040519081016040528092919081815260200182805461254b90616071565b80156125985780601f1061256d57610100808354040283529160200191612598565b820191906000526020600020905b81548152906001019060200180831161257b57829003601f168201915b5050505050908060010160009054906101000a900460ff16908060010160019054906101000a900460ff16905083565b6060600060606000856001600082815260200190815260200160002060010160009054906101000a900460ff1615801561262257506001600082815260200190815260200160002060010160019054906101000a900460ff165b612661576040517f08c379a0000000000000000000000000000000000000000000000000000000008152600401612658906164ec565b60405180910390fd5b6000600a6000898152602001908152602001600020905060005b8180549050811015612878578782828154811061269b5761269a6163df565b5b9060005260206000209060040201600301540361286b578181815481106126c5576126c46163df565b5b90600052602060002090600402016000018282815481106126e9576126e86163df565b5b90600052602060002090600402016003015483838154811061270e5761270d6163df565b5b9060005260206000209060040201600101848481548110612732576127316163df565b5b90600052602060002090600402016002015483805461275090616071565b80601f016020809104026020016040519081016040528092919081815260200182805461277c90616071565b80156127c95780601f1061279e576101008083540402835291602001916127c9565b820191906000526020600020905b8154815290600101906020018083116127ac57829003601f168201915b505050505093508180546127dc90616071565b80601f016020809104026020016040519081016040528092919081815260200182805461280890616071565b80156128555780601f1061282a57610100808354040283529160200191612855565b820191906000526020600020905b81548152906001019060200180831161283857829003601f168201915b505050505091509650965096509650505061287b565b808060010191505061267b565b50505b5092959194509250565b6000600d54905090565b60008054906101000a900473ffffffffffffffffffffffffffffffffffffffff1673ffffffffffffffffffffffffffffffffffffffff163373ffffffffffffffffffffffffffffffffffffffff161461291d576040517f08c379a000000000000000000000000000000000000000000000000000000000815260040161291490615fab565b60405180910390fd5b806001600082815260200190815260200160002060010160009054906101000a900460ff16612981576040517f08c379a0000000000000000000000000000000000000000000000000000000008152600401612978906165c4565b60405180910390fd5b60006001600084815260200190815260200160002060010160006101000a81548160ff0219169083151502179055505050565b60008054906101000a900473ffffffffffffffffffffffffffffffffffffffff1673ffffffffffffffffffffffffffffffffffffffff163373ffffffffffffffffffffffffffffffffffffffff1614612a42576040517f08c379a0000000000000000000000000000000000000000000000000000000008152600401612a3990615fab565b60405180910390fd5b826001600082815260200190815260200160002060010160019054906101000a900460ff1615612aa7576040517f08c379a0000000000000000000000000000000000000000000000000000000008152600401612a9e9061636c565b60405180910390fd5b8151835114612aeb576040517f08c379a0000000000000000000000000000000000000000000000000000000008152600401612ae290616630565b60405180910390fd5b600060036000868152602001908152602001600020905060005b8451811015612c9c576000858281518110612b2357612b226163df565b5b6020026020010151604051602001612b3b91906163c8565b6040516020818303038152906040528051906020012090506000805b8480549050811015612bee5782858281548110612b7757612b766163df565b5b906000526020600020906003020160000154148015612bd35750868481518110612ba457612ba36163df565b5b6020026020010151858281548110612bbf57612bbe6163df565b5b906000526020600020906003020160010154145b15612be15760019150612bee565b8080600101915050612b57565b5080612c8d57836040518060600160405280848152602001888681518110612c1957612c186163df565b5b60200260200101518152602001600015158152509080600181540180825580915050600190039060005260206000209060030201600090919091909150600082015181600001556020820151816001015560408201518160020160006101000a81548160ff02191690831515021790555050505b50508080600101915050612b05565b505050505050565b60076020528160005260406000208181548110612cc057600080fd5b906000526020600020906006020160009150915050806000015490806001018054612cea90616071565b80601f0160208091040260200160405190810160405280929190818152602001828054612d1690616071565b8015612d635780601f10612d3857610100808354040283529160200191612d63565b820191906000526020600020905b815481529060010190602001808311612d4657829003601f168201915b505050505090806002015490806003018054612d7e90616071565b80601f0160208091040260200160405190810160405280929190818152602001828054612daa90616071565b8015612df75780601f10612dcc57610100808354040283529160200191612df7565b820191906000526020600020905b815481529060010190602001808311612dda57829003601f168201915b505050505090806004018054612e0c90616071565b80601f0160208091040260200160405190810160405280929190818152602001828054612e3890616071565b8015612e855780601f10612e5a57610100808354040283529160200191612e85565b820191906000526020600020905b815481529060010190602001808311612e6857829003601f168201915b5050505050908060050154905086565b60008054906101000a900473ffffffffffffffffffffffffffffffffffffffff1673ffffffffffffffffffffffffffffffffffffffff163373ffffffffffffffffffffffffffffffffffffffff1614612f23576040517f08c379a0000000000000000000000000000000000000000000000000000000008152600401612f1a90615fab565b60405180910390fd5b856001600082815260200190815260200160002060010160019054906101000a900460ff1615612f88576040517f08c379a0000000000000000000000000000000000000000000000000000000008152600401612f7f9061636c565b60405180910390fd5b84518651148015612f9a575083518651145b8015612fa7575082518651145b8015612fb4575081518651145b612ff3576040517f08c379a0000000000000000000000000000000000000000000000000000000008152600401612fea90616558565b60405180910390fd5b60005b865181101561319c57600b600081548092919061301290615ffa565b9190505550600660008981526020019081526020016000206040518060e00160405280600b5481526020018984815181106130505761304f6163df565b5b602002602001015181526020018884815181106130705761306f6163df565b5b602002602001015181526020018784815181106130905761308f6163df565b5b602002602001015181526020018684815181106130b0576130af6163df565b5b602002602001015181526020018584815181106130d0576130cf6163df565b5b602002602001015181526020016000815250908060018154018082558091505060019003906000526020600020906007020160009091909190915060008201518160000155602082015181600101908161312a919061624e565b506040820151816002019081613140919061624e565b506060820151816003019081613156919061624e565b50608082015181600401908161316c919061624e565b5060a0820151816005019081613182919061624e565b5060c0820151816006015550508080600101915050612ff6565b5050505050505050565b6131ae6148ba565b600060056000858152602001908152602001600020905060005b818054905081101561336f57838282815481106131e8576131e76163df565b5b9060005260206000209060030201600101540361336257818181548110613212576132116163df565b5b906000526020600020906003020160405180606001604052908160008201805461323b90616071565b80601f016020809104026020016040519081016040528092919081815260200182805461326790616071565b80156132b45780601f10613289576101008083540402835291602001916132b4565b820191906000526020600020905b81548152906001019060200180831161329757829003601f168201915b50505050508152602001600182015481526020016002820180546132d790616071565b80601f016020809104026020016040519081016040528092919081815260200182805461330390616071565b80156133505780601f1061332557610100808354040283529160200191613350565b820191906000526020600020905b81548152906001019060200180831161333357829003601f168201915b505050505081525050925050506133ab565b80806001019150506131c8565b506040517f08c379a00000000000000000000000000000000000000000000000000000000081526004016133a2906166c2565b60405180910390fd5b92915050565b600560205281600052604060002081815481106133cd57600080fd5b9060005260206000209060030201600091509150508060000180546133f190616071565b80601f016020809104026020016040519081016040528092919081815260200182805461341d90616071565b801561346a5780601f1061343f5761010080835404028352916020019161346a565b820191906000526020600020905b81548152906001019060200180831161344d57829003601f168201915b50505050509080600101549080600201805461348590616071565b80601f01602080910402602001604051908101604052809291908181526020018280546134b190616071565b80156134fe5780601f106134d3576101008083540402835291602001916134fe565b820191906000526020600020905b8154815290600101906020018083116134e157829003601f168201915b5050505050905083565b600a602052816000526040600020818154811061352457600080fd5b90600052602060002090600402016000915091505080600001805461354890616071565b80601f016020809104026020016040519081016040528092919081815260200182805461357490616071565b80156135c15780601f10613596576101008083540402835291602001916135c1565b820191906000526020600020905b8154815290600101906020018083116135a457829003601f168201915b5050505050908060010180546135d690616071565b80601f016020809104026020016040519081016040528092919081815260200182805461360290616071565b801561364f5780601f106136245761010080835404028352916020019161364f565b820191906000526020600020905b81548152906001019060200180831161363257829003601f168201915b5050505050908060020154908060030154905084565b60045481565b6000600260008373ffffffffffffffffffffffffffffffffffffffff1673ffffffffffffffffffffffffffffffffffffffff168152602001908152602001600020549050919050565b60008054906101000a900473ffffffffffffffffffffffffffffffffffffffff1673ffffffffffffffffffffffffffffffffffffffff163373ffffffffffffffffffffffffffffffffffffffff1614613742576040517f08c379a000000000000000000000000000000000000000000000000000000000815260040161373990615fab565b60405180910390fd5b856001600082815260200190815260200160002060010160019054906101000a900460ff16156137a7576040517f08c379a000000000000000000000000000000000000000000000000000000000815260040161379e9061636c565b60405180910390fd5b600b60008154809291906137ba90615ffa565b9190505550600660008881526020019081526020016000206040518060e00160405280600b54815260200188815260200187815260200186815260200185815260200184815260200160008152509080600181540180825580915050600190039060005260206000209060070201600090919091909150600082015181600001556020820151816001019081613850919061624e565b506040820151816002019081613866919061624e565b50606082015181600301908161387c919061624e565b506080820151816004019081613892919061624e565b5060a08201518160050190816138a8919061624e565b5060c08201518160060155505050505050505050565b606060006007600085815260200190815260200160002090506000805b828054905081101561392e57848382815481106138fb576138fa6163df565b5b9060005260206000209060060201600201540361392157818061391d90615ffa565b9250505b80806001019150506138db565b5060008167ffffffffffffffff81111561394b5761394a6149ff565b5b60405190808252806020026020018201604052801561398457816020015b6139716148db565b8152602001906001900390816139695790505b5090506000805b8480549050811015613bfa57868582815481106139ab576139aa6163df565b5b90600052602060002090600602016002015403613bed578481815481106139d5576139d46163df565b5b90600052602060002090600602016040518060c001604052908160008201548152602001600182018054613a0890616071565b80601f0160208091040260200160405190810160405280929190818152602001828054613a3490616071565b8015613a815780601f10613a5657610100808354040283529160200191613a81565b820191906000526020600020905b815481529060010190602001808311613a6457829003601f168201915b5050505050815260200160028201548152602001600382018054613aa490616071565b80601f0160208091040260200160405190810160405280929190818152602001828054613ad090616071565b8015613b1d5780601f10613af257610100808354040283529160200191613b1d565b820191906000526020600020905b815481529060010190602001808311613b0057829003601f168201915b50505050508152602001600482018054613b3690616071565b80601f0160208091040260200160405190810160405280929190818152602001828054613b6290616071565b8015613baf5780601f10613b8457610100808354040283529160200191613baf565b820191906000526020600020905b815481529060010190602001808311613b9257829003601f168201915b50505050508152602001600582015481525050838380613bce90615ffa565b945081518110613be157613be06163df565b5b60200260200101819052505b808060010191505061398b565b508194505050505092915050565b600d5481565b600060036000858152602001908152602001600020905060005b8180549050811015613d005783604051602001613c4591906163c8565b60405160208183030381529060405280519060200120828281548110613c6e57613c6d6163df565b5b906000526020600020906003020160000154148015613cb0575082828281548110613c9c57613c9b6163df565b5b906000526020600020906003020160010154145b15613cf3576001828281548110613cca57613cc96163df565b5b906000526020600020906003020160020160006101000a81548160ff0219169083151502179055505b8080600101915050613c28565b5050505050565b60008054906101000a900473ffffffffffffffffffffffffffffffffffffffff1673ffffffffffffffffffffffffffffffffffffffff163373ffffffffffffffffffffffffffffffffffffffff1614613d95576040517f08c379a0000000000000000000000000000000000000000000000000000000008152600401613d8c90615fab565b60405180910390fd5b846001600082815260200190815260200160002060010160019054906101000a900460ff1615613dfa576040517f08c379a0000000000000000000000000000000000000000000000000000000008152600401613df19061636c565b60405180910390fd5b600060076000888152602001908152602001600020905060006005600089815260200190815260200160002090506000805b8280549050811015613f4d5787838281548110613e4c57613e4b6163df565b5b90600052602060002090600302016001015403613f4057600c6000815480929190613e7690615ffa565b9190505550836040518060c00160405280600c5481526020018b81526020018a815260200189815260200188815260200160008152509080600181540180825580915050600190039060005260206000209060060201600090919091909150600082015181600001556020820151816001019081613ef4919061624e565b50604082015181600201556060820151816003019081613f14919061624e565b506080820151816004019081613f2a919061624e565b5060a08201518160050155505060019150613f4d565b8080600101915050613e2c565b5080613f8e576040517f08c379a0000000000000000000000000000000000000000000000000000000008152600401613f859061672e565b60405180910390fd5b505050505050505050565b606060056000838152602001908152602001600020805480602002602001604051908101604052809291908181526020016000905b8282101561412e578382906000526020600020906003020160405180606001604052908160008201805461400190616071565b80601f016020809104026020016040519081016040528092919081815260200182805461402d90616071565b801561407a5780601f1061404f5761010080835404028352916020019161407a565b820191906000526020600020905b81548152906001019060200180831161405d57829003601f168201915b505050505081526020016001820154815260200160028201805461409d90616071565b80601f01602080910402602001604051908101604052809291908181526020018280546140c990616071565b80156141165780601f106140eb57610100808354040283529160200191614116565b820191906000526020600020905b8154815290600101906020018083116140f957829003601f168201915b50505050508152505081526020019060010190613fce565b505050509050919050565b6008602052816000526040600020818154811061415557600080fd5b90600052602060002090600302016000915091505080600001805461417990616071565b80601f01602080910402602001604051908101604052809291908181526020018280546141a590616071565b80156141f25780601f106141c7576101008083540402835291602001916141f2565b820191906000526020600020905b8154815290600101906020018083116141d557829003601f168201915b50505050509080600101805461420790616071565b80601f016020809104026020016040519081016040528092919081815260200182805461423390616071565b80156142805780601f1061425557610100808354040283529160200191614280565b820191906000526020600020905b81548152906001019060200180831161426357829003601f168201915b5050505050908060020154905083565b60008060036000868152602001908152602001600020905060005b818054905081101561438b57846040516020016142c891906163c8565b604051602081830303815290604052805190602001208282815481106142f1576142f06163df565b5b90600052602060002090600302016000015414801561433f575081818154811061431e5761431d6163df565b5b906000526020600020906003020160020160009054906101000a900460ff16155b801561436e57508382828154811061435a576143596163df565b5b906000526020600020906003020160010154145b1561437e57600192505050614392565b80806001019150506142ab565b5060009150505b9392505050565b846001600082815260200190815260200160002060010160009054906101000a900460ff166143fd576040517f08c379a00000000000000000000000000000000000000000000000000000000081526004016143f4906165c4565b60405180910390fd5b614408868484614290565b614447576040517f08c379a000000000000000000000000000000000000000000000000000000000815260040161443e9061679a565b60405180910390fd5b614452868484613c0e565b60086000878152602001908152602001600020604051806060016040528087815260200186815260200184815250908060018154018082558091505060019003906000526020600020906003020160009091909190915060008201518160000190816144be919061624e565b5060208201518160010190816144d4919061624e565b50604082015181600201555050505050505050565b60008054906101000a900473ffffffffffffffffffffffffffffffffffffffff1673ffffffffffffffffffffffffffffffffffffffff163373ffffffffffffffffffffffffffffffffffffffff1614614577576040517f08c379a000000000000000000000000000000000000000000000000000000000815260040161456e90615fab565b60405180910390fd5b846001600082815260200190815260200160002060010160019054906101000a900460ff16156145dc576040517f08c379a00000000000000000000000000000000000000000000000000000000081526004016145d39061636c565b60405180910390fd5b835185511480156145ee575082518551145b80156145fb575081518551145b61463a576040517f08c379a000000000000000000000000000000000000000000000000000000000815260040161463190616558565b60405180910390fd5b6000600760008881526020019081526020016000209050600060056000898152602001908152602001600020905060005b875181101561486a576000805b838054905081101561481b57888381518110614697576146966163df565b5b60200260200101518482815481106146b2576146b16163df565b5b9060005260206000209060030201600101540361480e57600c60008154809291906146dc90615ffa565b9190505550846040518060c00160405280600c5481526020018c8681518110614708576147076163df565b5b602002602001015181526020018b8681518110614728576147276163df565b5b602002602001015181526020018a8681518110614748576147476163df565b5b60200260200101518152602001898681518110614768576147676163df565b5b60200260200101518152602001600081525090806001815401808255809150506001900390600052602060002090600602016000909190919091506000820151816000015560208201518160010190816147c2919061624e565b506040820151816002015560608201518160030190816147e2919061624e565b5060808201518160040190816147f8919061624e565b5060a0820151816005015550506001915061481b565b8080600101915050614678565b508061485c576040517f08c379a00000000000000000000000000000000000000000000000000000000081526004016148539061672e565b60405180910390fd5b50808060010191505061466b565b505050505050505050565b60008054906101000a900473ffffffffffffffffffffffffffffffffffffffff1681565b60405180606001604052806060815260200160608152602001600081525090565b60405180606001604052806060815260200160008152602001606081525090565b6040518060c001604052806000815260200160608152602001600081526020016060815260200160608152602001600081525090565b6000819050919050565b61492481614911565b82525050565b600060208201905061493f600083018461491b565b92915050565b6000604051905090565b600080fd5b600080fd5b600073ffffffffffffffffffffffffffffffffffffffff82169050919050565b600061498482614959565b9050919050565b61499481614979565b811461499f57600080fd5b50565b6000813590506149b18161498b565b92915050565b6000602082840312156149cd576149cc61494f565b5b60006149db848285016149a2565b91505092915050565b600080fd5b600080fd5b6000601f19601f8301169050919050565b7f4e487b7100000000000000000000000000000000000000000000000000000000600052604160045260246000fd5b614a37826149ee565b810181811067ffffffffffffffff82111715614a5657614a556149ff565b5b80604052505050565b6000614a69614945565b9050614a758282614a2e565b919050565b600067ffffffffffffffff821115614a9557614a946149ff565b5b614a9e826149ee565b9050602081019050919050565b82818337600083830152505050565b6000614acd614ac884614a7a565b614a5f565b905082815260208101848484011115614ae957614ae86149e9565b5b614af4848285614aab565b509392505050565b600082601f830112614b1157614b106149e4565b5b8135614b21848260208601614aba565b91505092915050565b600060208284031215614b4057614b3f61494f565b5b600082013567ffffffffffffffff811115614b5e57614b5d614954565b5b614b6a84828501614afc565b91505092915050565b614b7c81614911565b8114614b8757600080fd5b50565b600081359050614b9981614b73565b92915050565b60008060408385031215614bb657614bb561494f565b5b6000614bc485828601614b8a565b9250506020614bd585828601614b8a565b9150509250929050565b600081519050919050565b600082825260208201905092915050565b60005b83811015614c19578082015181840152602081019050614bfe565b60008484015250505050565b6000614c3082614bdf565b614c3a8185614bea565b9350614c4a818560208601614bfb565b614c53816149ee565b840191505092915050565b60006080820190508181036000830152614c788187614c25565b90508181036020830152614c8c8186614c25565b9050614c9b604083018561491b565b614ca8606083018461491b565b95945050505050565b60008060008060808587031215614ccb57614cca61494f565b5b6000614cd987828801614b8a565b945050602085013567ffffffffffffffff811115614cfa57614cf9614954565b5b614d0687828801614afc565b9350506040614d1787828801614b8a565b925050606085013567ffffffffffffffff811115614d3857614d37614954565b5b614d4487828801614afc565b91505092959194509250565b600060208284031215614d6657614d6561494f565b5b6000614d7484828501614b8a565b91505092915050565b60006020820190508181036000830152614d978184614c25565b905092915050565b600080600060608486031215614db857614db761494f565b5b6000614dc686828701614b8a565b935050602084013567ffffffffffffffff811115614de757614de6614954565b5b614df386828701614afc565b9250506040614e0486828701614b8a565b9150509250925092565b60006080820190508181036000830152614e288187614c25565b9050614e37602083018661491b565b8181036040830152614e498185614c25565b9050614e58606083018461491b565b95945050505050565b600067ffffffffffffffff821115614e7c57614e7b6149ff565b5b602082029050602081019050919050565b600080fd5b6000614ea5614ea084614e61565b614a5f565b90508083825260208201905060208402830185811115614ec857614ec7614e8d565b5b835b81811015614f0f57803567ffffffffffffffff811115614eed57614eec6149e4565b5b808601614efa8982614afc565b85526020850194505050602081019050614eca565b5050509392505050565b600082601f830112614f2e57614f2d6149e4565b5b8135614f3e848260208601614e92565b91505092915050565b600067ffffffffffffffff821115614f6257614f616149ff565b5b602082029050602081019050919050565b6000614f86614f8184614f47565b614a5f565b90508083825260208201905060208402830185811115614fa957614fa8614e8d565b5b835b81811015614fd25780614fbe8882614b8a565b845260208401935050602081019050614fab565b5050509392505050565b600082601f830112614ff157614ff06149e4565b5b8135615001848260208601614f73565b91505092915050565b600080600080608085870312156150245761502361494f565b5b600061503287828801614b8a565b945050602085013567ffffffffffffffff81111561505357615052614954565b5b61505f87828801614f19565b935050604085013567ffffffffffffffff8111156150805761507f614954565b5b61508c87828801614fdc565b925050606085013567ffffffffffffffff8111156150ad576150ac614954565b5b6150b987828801614f19565b91505092959194509250565b600080600080608085870312156150df576150de61494f565b5b60006150ed87828801614b8a565b945050602085013567ffffffffffffffff81111561510e5761510d614954565b5b61511a87828801614afc565b935050604085013567ffffffffffffffff81111561513b5761513a614954565b5b61514787828801614afc565b925050606061515887828801614b8a565b91505092959194509250565b600081519050919050565b600082825260208201905092915050565b6000819050602082019050919050565b61519981614911565b82525050565b600082825260208201905092915050565b60006151bb82614bdf565b6151c5818561519f565b93506151d5818560208601614bfb565b6151de816149ee565b840191505092915050565b600060e0830160008301516152016000860182615190565b506020830151848203602086015261521982826151b0565b9150506040830151848203604086015261523382826151b0565b9150506060830151848203606086015261524d82826151b0565b9150506080830151848203608086015261526782826151b0565b91505060a083015184820360a086015261528182826151b0565b91505060c083015161529660c0860182615190565b508091505092915050565b60006152ad83836151e9565b905092915050565b6000602082019050919050565b60006152cd82615164565b6152d7818561516f565b9350836020820285016152e985615180565b8060005b85811015615325578484038952815161530685826152a1565b9450615311836152b5565b925060208a019950506001810190506152ed565b50829750879550505050505092915050565b6000602082019050818103600083015261535181846152c2565b905092915050565b600060e08201905061536e600083018a61491b565b81810360208301526153808189614c25565b905081810360408301526153948188614c25565b905081810360608301526153a88187614c25565b905081810360808301526153bc8186614c25565b905081810360a08301526153d08185614c25565b90506153df60c083018461491b565b98975050505050505050565b600081519050919050565b600082825260208201905092915050565b6000819050602082019050919050565b6000606083016000830151848203600086015261543482826151b0565b9150506020830151848203602086015261544e82826151b0565b91505060408301516154636040860182615190565b508091505092915050565b600061547a8383615417565b905092915050565b6000602082019050919050565b600061549a826153eb565b6154a481856153f6565b9350836020820285016154b685615407565b8060005b858110156154f257848403895281516154d3858261546e565b94506154de83615482565b925060208a019950506001810190506154ba565b50829750879550505050505092915050565b6000602082019050818103600083015261551e818461548f565b905092915050565b60008115159050919050565b61553b81615526565b82525050565b6000606082019050818103600083015261555b8186614c25565b905061556a6020830185615532565b6155776040830184615532565b949350505050565b6000806000606084860312156155985761559761494f565b5b60006155a686828701614b8a565b935050602084013567ffffffffffffffff8111156155c7576155c6614954565b5b6155d386828701614f19565b925050604084013567ffffffffffffffff8111156155f4576155f3614954565b5b61560086828701614fdc565b9150509250925092565b600060c08201905061561f600083018961491b565b81810360208301526156318188614c25565b9050615640604083018761491b565b81810360608301526156528186614c25565b905081810360808301526156668185614c25565b905061567560a083018461491b565b979650505050505050565b60008060008060008060c0878903121561569d5761569c61494f565b5b60006156ab89828a01614b8a565b965050602087013567ffffffffffffffff8111156156cc576156cb614954565b5b6156d889828a01614f19565b955050604087013567ffffffffffffffff8111156156f9576156f8614954565b5b61570589828a01614f19565b945050606087013567ffffffffffffffff81111561572657615725614954565b5b61573289828a01614f19565b935050608087013567ffffffffffffffff81111561575357615752614954565b5b61575f89828a01614f19565b92505060a087013567ffffffffffffffff8111156157805761577f614954565b5b61578c89828a01614f19565b9150509295509295509295565b600060608301600083015184820360008601526157b682826151b0565b91505060208301516157cb6020860182615190565b50604083015184820360408601526157e382826151b0565b9150508091505092915050565b6000602082019050818103600083015261580a8184615799565b905092915050565b6000606082019050818103600083015261582c8186614c25565b905061583b602083018561491b565b818103604083015261584d8184614c25565b9050949350505050565b60008060008060008060c087890312156158745761587361494f565b5b600061588289828a01614b8a565b965050602087013567ffffffffffffffff8111156158a3576158a2614954565b5b6158af89828a01614afc565b955050604087013567ffffffffffffffff8111156158d0576158cf614954565b5b6158dc89828a01614afc565b945050606087013567ffffffffffffffff8111156158fd576158fc614954565b5b61590989828a01614afc565b935050608087013567ffffffffffffffff81111561592a57615929614954565b5b61593689828a01614afc565b92505060a087013567ffffffffffffffff81111561595757615956614954565b5b61596389828a01614afc565b9150509295509295509295565b600081519050919050565b600082825260208201905092915050565b6000819050602082019050919050565b600060c0830160008301516159b46000860182615190565b50602083015184820360208601526159cc82826151b0565b91505060408301516159e16040860182615190565b50606083015184820360608601526159f982826151b0565b91505060808301518482036080860152615a1382826151b0565b91505060a0830151615a2860a0860182615190565b508091505092915050565b6000615a3f838361599c565b905092915050565b6000602082019050919050565b6000615a5f82615970565b615a69818561597b565b935083602082028501615a7b8561598c565b8060005b85811015615ab75784840389528151615a988582615a33565b9450615aa383615a47565b925060208a01995050600181019050615a7f565b50829750879550505050505092915050565b60006020820190508181036000830152615ae38184615a54565b905092915050565b600080600080600060a08688031215615b0757615b0661494f565b5b6000615b1588828901614b8a565b955050602086013567ffffffffffffffff811115615b3657615b35614954565b5b615b4288828901614afc565b9450506040615b5388828901614b8a565b935050606086013567ffffffffffffffff811115615b7457615b73614954565b5b615b8088828901614afc565b925050608086013567ffffffffffffffff811115615ba157615ba0614954565b5b615bad88828901614afc565b9150509295509295909350565b600081519050919050565b600082825260208201905092915050565b6000819050602082019050919050565b60006060830160008301518482036000860152615c0382826151b0565b9150506020830151615c186020860182615190565b5060408301518482036040860152615c3082826151b0565b9150508091505092915050565b6000615c498383615be6565b905092915050565b6000602082019050919050565b6000615c6982615bba565b615c738185615bc5565b935083602082028501615c8585615bd6565b8060005b85811015615cc15784840389528151615ca28582615c3d565b9450615cad83615c51565b925060208a01995050600181019050615c89565b50829750879550505050505092915050565b60006020820190508181036000830152615ced8184615c5e565b905092915050565b60006060820190508181036000830152615d0f8186614c25565b90508181036020830152615d238185614c25565b9050615d32604083018461491b565b949350505050565b6000602082019050615d4f6000830184615532565b92915050565b600080600080600060a08688031215615d7157615d7061494f565b5b6000615d7f88828901614b8a565b955050602086013567ffffffffffffffff811115615da057615d9f614954565b5b615dac88828901614afc565b945050604086013567ffffffffffffffff811115615dcd57615dcc614954565b5b615dd988828901614afc565b935050606086013567ffffffffffffffff811115615dfa57615df9614954565b5b615e0688828901614afc565b9250506080615e1788828901614b8a565b9150509295509295909350565b600080600080600060a08688031215615e4057615e3f61494f565b5b6000615e4e88828901614b8a565b955050602086013567ffffffffffffffff811115615e6f57615e6e614954565b5b615e7b88828901614f19565b945050604086013567ffffffffffffffff811115615e9c57615e9b614954565b5b615ea888828901614fdc565b935050606086013567ffffffffffffffff811115615ec957615ec8614954565b5b615ed588828901614f19565b925050608086013567ffffffffffffffff811115615ef657615ef5614954565b5b615f0288828901614f19565b9150509295509295909350565b615f1881614979565b82525050565b6000602082019050615f336000830184615f0f565b92915050565b7f4e7572206465722041646d696e206b616e6e2064696573652046756e6b74696f60008201527f6e2061757366c3bc6872656e2100000000000000000000000000000000000000602082015250565b6000615f95602d83614bea565b9150615fa082615f39565b604082019050919050565b60006020820190508181036000830152615fc481615f88565b9050919050565b7f4e487b7100000000000000000000000000000000000000000000000000000000600052601160045260246000fd5b600061600582614911565b91507fffffffffffffffffffffffffffffffffffffffffffffffffffffffffffffffff820361603757616036615fcb565b5b600182019050919050565b7f4e487b7100000000000000000000000000000000000000000000000000000000600052602260045260246000fd5b6000600282049050600182168061608957607f821691505b60208210810361609c5761609b616042565b5b50919050565b60008190508160005260206000209050919050565b60006020601f8301049050919050565b600082821b905092915050565b6000600883026161047fffffffffffffffffffffffffffffffffffffffffffffffffffffffffffffffff826160c7565b61610e86836160c7565b95508019841693508086168417925050509392505050565b6000819050919050565b600061614b61614661614184614911565b616126565b614911565b9050919050565b6000819050919050565b61616583616130565b61617961617182616152565b8484546160d4565b825550505050565b600090565b61618e616181565b61619981848461615c565b505050565b5b818110156161bd576161b2600082616186565b60018101905061619f565b5050565b601f821115616202576161d3816160a2565b6161dc846160b7565b810160208510156161eb578190505b6161ff6161f7856160b7565b83018261619e565b50505b505050565b600082821c905092915050565b600061622560001984600802616207565b1980831691505092915050565b600061623e8383616214565b9150826002028217905092915050565b61625782614bdf565b67ffffffffffffffff8111156162705761626f6149ff565b5b61627a8254616071565b6162858282856161c1565b600060209050601f8311600181146162b857600084156162a6578287015190505b6162b08582616232565b865550616318565b601f1984166162c6866160a2565b60005b828110156162ee578489015182556001820191506020850194506020810190506162c9565b8683101561630b5784890151616307601f891682616214565b8355505b6001600288020188555050505b505050505050565b7f446965205761686c20697374207363686f6e206765c3b666666e65742e000000600082015250565b6000616356601d83614bea565b915061636182616320565b602082019050919050565b6000602082019050818103600083015261638581616349565b9050919050565b600081905092915050565b60006163a282614bdf565b6163ac818561638c565b93506163bc818560208601614bfb565b80840191505092915050565b60006163d48284616397565b915081905092915050565b7f4e487b7100000000000000000000000000000000000000000000000000000000600052603260045260246000fd5b7f546f6b656e20616c726561647920726567697374657265640000000000000000600082015250565b6000616444601883614bea565b915061644f8261640e565b602082019050919050565b6000602082019050818103600083015261647381616437565b9050919050565b7f446965205761686c20697374206e6f6368206765c3b666666e6574206f64657260008201527f20686174206e69636874206265676f6e6e656e2e000000000000000000000000602082015250565b60006164d6603483614bea565b91506164e18261647a565b604082019050919050565b60006020820190508181036000830152616505816164c9565b9050919050565b7f417272617973206d75737420686176652073616d65206c656e67746800000000600082015250565b6000616542601c83614bea565b915061654d8261650c565b602082019050919050565b6000602082019050818103600083015261657181616535565b9050919050565b7f446965205761686c20697374206e69636874206765c3b666666e65742e000000600082015250565b60006165ae601d83614bea565b91506165b982616578565b602082019050919050565b600060208201905081810360008301526165dd816165a1565b9050919050565b7f4c656e677468206d69736d617463680000000000000000000000000000000000600082015250565b600061661a600f83614bea565b9150616625826165e4565b602082019050919050565b600060208201905081810360008301526166498161660d565b9050919050565b7f4e6f20656c656374696f6e20646973747269637420776974682074686520676960008201527f76656e206e756d62657220666f756e6400000000000000000000000000000000602082015250565b60006166ac603083614bea565b91506166b782616650565b604082019050919050565b600060208201905081810360008301526166db8161669f565b9050919050565b7f4b65696e2067c3bc6c7469676572205761686c62657a69726b21000000000000600082015250565b6000616718601a83614bea565b9150616723826166e2565b602082019050919050565b600060208201905081810360008301526167478161670b565b9050919050565b7f496e76616c6964206f72207573656420746f6b656e0000000000000000000000600082015250565b6000616784601583614bea565b915061678f8261674e565b602082019050919050565b600060208201905081810360008301526167b381616777565b905091905056fe446965205761686c20686174206e6f6368206e69636874206265676f6e6e656e2ea2646970667358221220e8de84948f9325c80102b25df635cf3f530ad8735c39e148b6de953676986e8264736f6c634300081c0033",
  "linkReferences": {},
  "deployedLinkReferences": {}
}